:040000000EEF2EF0E1
:1010000000413738392F45423435362A464331328C
:10101000332D4644302E3D2B47434153494F004921
:101020004E46004E414E00696E66006E616E0025B0
:101030006C75006C64006C66006C690025660025A8
:0310400069000044
:10104400000E616E000E606E42C072F043C073F019
:1010540044C074F045C075F075BE35EF08F033EF49
:1010640008F04BEF08F0000E616E010E606E72C066
:1010740001F073C002F074C003F075C004F0ADEC6D
:101084002FF001C072F002C073F003C074F004C00A
:1010940075F0000E796E000E786EEBC064F0ECC053
:1010A40065F060506110D8A45AEF08F05CEF08F0C6
:1010B40064EF08F00001EFA562EF08F064EF08F0B8
:1010C4007EEF08F060506110D8A46BEF08F06DEF6C
:1010D40008F073EF08F0000E4D6E2B0E4C6E77EF98
:1010E40008F0000E4D6E2D0E4C6E4CC027F1784A60
:1010F400792A6406D8A0650672C001F073C002F0B4
:1011040074C003F075C004F06EEC27F00104021003
:10111400D8A48FEF08F091EF08F0D9EF08F0BF0ED4
:10112400476EFF0E486E4650496E4A6A475049263C
:1011340048504A224A5007E11A0E495CD8B0A5EF3C
:1011440008F0A7EF08F0B5EF08F0270E7824016E39
:10115400010E7920026E1F0E036E100E046EDFEC7A
:101164002DF0C1EF08F0270E7824016E010E7920CE
:10117400026E270E036E100E046EDFEC2DF0FD0ED2
:101184006426FF0E652240C011F041C012F0270E04
:10119400136E010E146E64C015F065C016F032ECC7
:1011A40029F011C040F012C041F019EF0EF072C0E6
:1011B40001F073C002F074C003F075C004F06EEC6B
:1011C40027F001500210D8A4EAEF08F0ECEF08F081
:1011D4001EEF09F0BF0E476EFF0E486E4650496E73
:1011E4004A6A4750492648504A224A5007E11A0E93
:1011F400495CD8B000EF09F002EF09F010EF09F0F4
:10120400270E7824016E010E7920026E230E036EE0
:10121400100E046EDFEC2DF0C1EF08F0270E7824D9
:10122400016E010E7920026E2B0E036E100E046EF9
:10123400DFEC2DF0C1EF08F0000E7A6E000E7B6E2D
:10124400800E7C6E3F0E7D6E000E776E000E766E05
:1012540072C001F073C002F074C003F075C004F0F2
:10126400000E056E000E066E000E076E000E086E70
:10127400ABEC2AF0D8B041EF09F043EF09F0C4EF2A
:1012840009F061EF09F07AC00FF07BC010F07CC068
:1012940011F07DC012F0000E136E000E146E200EBD
:1012A400156E410E166ECDEC15F00FC07AF010C01D
:1012B4007BF011C07CF012C07DF0764A772A72C0B0
:1012C40028F073C029F074C02AF075C02BF0000E0A
:1012D400136E000E146E200E156E410E166E7AC03B
:1012E4000FF07BC010F07CC011F07DC012F0CDEC8B
:1012F40015F00FC02CF010C02DF011C02EF012C04C
:101304002FF0ECEC26F0D8B08AEF09F08CEF09F05E
:1013140045EF09F0ABEF09F07AC001F07BC002F0B1
:101324007CC003F07DC004F0000E056E000E066E56
:10133400200E076E410E086EE2EC17F001C07AF041
:1013440002C07BF003C07CF004C07DF07606D8A018
:10135400770672C028F073C029F074C02AF075C0F3
:101364002BF07AC02CF07BC02DF07CC02EF07DC019
:101374002FF0ECEC26F0D8A0C2EF09F0C4EF09F08E
:101384008EEF09F046C007F0086A65EC2EF00750AE
:10139400676E67C066F0670E6718D8A4D4EF09F0CB
:1013A400D6EF09F0FDEF09F00001ED51EE11D8A4DC
:1013B400DEEF09F0E0EF09F0E4EF09F0000EEE6F64
:1013C400010EED6FEEBFF1EF09F0EE5106E1ED0510
:1013D400D8B0EFEF09F0F1EF09F0F7EF09F0000EE4
:1013E400636E060E626E07EF0AF0EDC062F0EEC0A7
:1013F40063F007EF0AF00001EEBF03EF0AF005EF18
:101404000AF0F1EF09F0F7EF09F0670E6718D8A4B6
:101414000EEF0AF010EF0AF03FEF0AF077AE1EEF7E
:101424000AF0FC0E765CFF0E7758D8A01CEF0AF089
:101434001EEF0AF03DEF0AF0FF0E476EFF0E486EF6
:1014440062C049F063C04AF04750492648504A22D6
:101454007650495C4A50800A4B6E7750800A4B584C
:10146400D8A037EF0AF039EF0AF03DEF0AF0660E24
:10147400666E3FEF0AF0650E666E62C058F063C098
:1014840059F0670E6718D8A44AEF0AF04CEF0AF037
:101494005CEF0AF0660E6618D8A453EF0AF055EF15
:1014A4000AF05EEF0AF077BE5CEF0AF05AEF0AF03A
:1014B4005EEF0AF0584A592A660E6618D8A465EFFA
:1014C4000AF067EF0AF087EF0AF077BE6EEF0AF0D2
:1014D4006CEF0AF07AEF0AF0000E7A6E000E7B6E63
:1014E400800E7C6E3F0E7D6E000E776E000E766E63
:1014F400670E6718D8B481EF0AF083EF0AF087EF1C
:101504000AF07650582677505922000E716E000E5C
:10151400706E72C068F073C069F074C06AF075C010
:101524006BF07AC05AF07BC05BF07CC05CF07DC08D
:101534005DF017EF0BF068C001F069C002F06AC0FB
:1015440003F06BC004F07AC005F07BC006F07CC0E9
:1015540007F07DC008F0E2EC17F001C01AF002C0F9
:101564001BF003C01CF004C01DF0D2EC1CF01AC028
:101574006CF01BC06DF01CC06EF01DC06FF06CC031
:1015840001F06DC002F06EC003F06FC004F069ECAE
:1015940026F001C05EF002C05FF068C038F069C098
:1015A40039F06AC03AF06BC03BF07AC013F07BC0EC
:1015B40014F07CC015F07DC016F06CC00FF06DC047
:1015C40010F06EC011F06FC012F0CDEC15F00FC02A
:1015D4003CF010C03DF011C03EF012C03FF0CEEC24
:1015E4002EF038C068F039C069F03AC06AF03BC0E8
:1015F4006BF07AC001F07BC002F07CC003F07DC0C8
:1016040004F0000E056E000E066E200E076E410EED
:10161400086EE2EC17F001C07AF002C07BF003C060
:101624007CF004C07DF0704A712A5850705C71508F
:10163400800A476E5950800A4758D8A024EF0BF00F
:1016440026EF0BF09DEF0AF07AC00FF07BC010F08C
:101654007CC011F07DC012F0000E136E000E146EEB
:10166400A00E156E400E166ECDEC15F00FC06CF08A
:1016740010C06DF011C06EF012C06FF068C028F099
:1016840069C029F06AC02AF06BC02BF06CC02CF042
:101694006DC02DF06EC02EF06FC02FF0ECEC26F074
:1016A400D8B057EF0BF059EF0BF063EF0BF0000ECF
:1016B4006C6E000E6D6E000E6E6E000E6F6E8BEF14
:1016C4000BF068C001F069C002F06AC003F06BC09F
:1016D40004F06CC005F06DC006F06EC007F06FC07A
:1016E40008F0ABEC2AF0D8A07AEF0BF07CEF0BF00B
:1016F4008BEF0BF05EB081EF0BF083EF0BF08BEF11
:101704000BF0000E6C6E000E6D6E000E6E6E000E11
:101714006F6E72C028F073C029F074C02AF075C0CF
:101724002BF06CC02CF06DC02DF06EC02EF06FC08D
:101734002FF03DEC11F028C068F029C069F02AC0F0
:101744006AF02BC06BF068C028F069C029F06AC049
:101754002AF06BC02BF0000E136E000E146E200ED8
:10176400156E410E166E5AC00FF05BC010F05CC0CF
:1017740011F05DC012F0CDEC15F00FC02CF010C0CC
:101784002DF011C02EF012C02FF0ECEC26F0D8A0F2
:10179400CEEF0BF0D0EF0BF0F7EF0BF0764A772A91
:1017A4005AC00FF05BC010F05CC011F05DC012F0C5
:1017B400000E136E000E146E200E156E410E166E82
:1017C400CDEC15F00FC05AF010C05BF011C05CF006
:1017D40012C05DF0660E6618D8A4F3EF0BF0F5EFB7
:1017E4000BF0F7EF0BF0584A592A5AC07AF05BC055
:1017F4007BF05CC07CF05DC07DF0650E6618D8B4EB
:1018040006EF0CF008EF0CF00EEF0CF076C056F07B
:1018140077C057F012EF0CF0000E576E000E566EA4
:10182400000E556E000E546E000E536E000E526E76
:10183400000E716E000E706E0CEF0DF068C001F0BA
:1018440069C002F06AC003F06BC004F07AC005F00E
:101854007BC006F07CC007F07DC008F0E2EC17F016
:1018640001C01AF002C01BF003C01CF004C01DF03C
:10187400D2EC1CF01AC06CF01BC06DF01CC06EF0F2
:101884001DC06FF06CC001F06DC002F06EC003F0BB
:101894006FC004F069EC26F001C05EF002C05FF096
:1018A4000001EFB958EF0CF05AEF0CF077EF0CF0A1
:1018B4005E505F10D8A461EF0CF063EF0CF077EF8B
:1018C4000CF0670E6718D8A46AEF0CF06CEF0CF0FC
:1018D40077EF0CF057BE73EF0CF071EF0CF077EF6D
:1018E4000CF0524A532AC1EF0CF054505510D8A4AE
:1018F4007EEF0CF080EF0CF0AAEF0CF057BE87EFF0
:101904000CF085EF0CF0AAEF0CF0270E7824D96EBA
:10191400010E7920DA6E2E0EDF6E784A792A64067B
:10192400D8A06506000E556E010E546EAAEF0CF099
:10193400270E7824D96E010E7920DA6E300EDF6E10
:10194400784A792A6406D8A065065206D8A05306B8
:1019540052505310D8A4B1EF0CF0B3EF0CF09AEF3F
:101964000CF0270E7824D96E010E7920DA6E5E50C1
:10197400300FDF6E784A792A6406D8A0650668C0FD
:1019840038F069C039F06AC03AF06BC03BF07AC0F5
:1019940013F07BC014F07CC015F07DC016F06CC051
:1019A4000FF06DC010F06EC011F06FC012F0CDECEE
:1019B40015F00FC03CF010C03DF011C03EF012C055
:1019C4003FF0CEEC2EF038C068F039C069F03AC070
:1019D4006AF03BC06BF07AC001F07BC002F07CC0BF
:1019E40003F07DC004F0000E056E000E066E200E9E
:1019F400076E410E086EE2EC17F001C07AF002C0E7
:101A04007BF003C07CF004C07DF05606D8A05706D6
:101A1400704A712A5850705C7150800A476E595050
:101A2400800A4758D8B019EF0DF01BEF0DF029EFDD
:101A34000DF079BE27EF0DF0795009E14B0E785C7B
:101A4400D8A027EF0DF029EF0DF020EF0CF0545043
:101A54005510D8A430EF0DF032EF0DF044EF0DF037
:101A64000001EFA938EF0DF03AEF0DF044EF0DF05F
:101A7400270E7824D96E010E7920DA6E2E0EDF6ED1
:101A8400784A792A270E7824D96E010E7920DA6EE5
:101A9400000EDF6E650E6618D8A453EF0DF055EFF7
:101AA4000DF0C5EF08F0000E716E4F0E706E270E2C
:101AB4007024D96E010E7120DA6E000EDF6E000EF6
:101AC400616E000E606E77BE6CEF0DF06AEF0DF084
:101AD40074EF0DF0000E616E010E606E766C771E71
:101AE400D8B0772A000E636E020E626EA4EF0DF07A
:101AF4007006D8A07106270E7024D96E010E7120CD
:101B0400DA6E76C001F077C002F0000E046E0A0EA1
:101B1400036E53EC2AF00150300FDF6E76C001F0F3
:101B240077C002F0000E046E0A0E036E95EC29F0E5
:101B340001C076F002C077F06206D8A0630664069E
:101B4400D8A0650676507710D8A4ABEF0DF0ADEFB2
:101B54000DF07AEF0DF063BEBAEF0DF0635006E1BD
:101B64006204D8B0B8EF0DF0BAEF0DF07AEF0DF0D3
:101B74007006D8A0710660506110D8A4C4EF0DF0AF
:101B8400C6EF0DF0CCEF0DF0000E4F6E2B0E4E6E27
:101B9400D0EF0DF0000E4F6E2D0E4E6E270E7024FA
:101BA400D96E010E7120DA6E4EC0DFFF6406D8A034
:101BB40065067006D8A07106BF0E476EFF0E486E0C
:101BC4004650496E4A6A4750492648504A224A506C
:101BD40009E11A0E495CD8A0F2EF0DF0F4EF0DF014
:101BE400FAEF0DF0000E516E650E506EFEEF0DF023
:101BF400000E516E450E506E270E7024D96E010EE4
:101C04007120DA6E50C0DFFF6406D8A06506270E87
:101C14007824016E010E7920026E270E7024036E63
:101C2400010E7120046EDFEC2DF0C5EF08F01200F8
:101C340082C0D9FF83C0DAFFDECFF6FFDDCFF7FF26
:101C4400F86A0800F550250AD8A42BEF0EF02DEF02
:101C54000EF020EF11F082C0D9FF83C0DAFFDE2A34
:101C6400000EDD22000E0001EC6F000EEB6FEBC0E6
:101C7400EFF0ECC0F0F0ED69EE6982C0D9FF83C0EB
:101C8400DAFFDECFF6FFDDCFF7FFF86A0800F55084
:101C9400076E086A65EC2EF007500001A86FA85182
:101CA400D8B457EF0EF059EF0EF095EF0EF082C056
:101CB400D9FF83C0DAFFDECF86F0DDCF87F0010ED7
:101CC4008627000E872386C0F6FF87C0F7FFF86AD1
:101CD4000800F550076E086A65EC2EF00750000105
:101CE400A96FA951D8B479EF0EF07BEF0EF095EF00
:101CF4000EF082C0D9FF83C0DAFFDECF86F0DDCFDD
:101D040087F0020E8627000E872386C0F6FF87C061
:101D1400F7FFF86A0800F550076E086A65EC2EF0C4
:101D240007500001AA6F82C0D9FF83C0DAFFDECF5B
:101D3400F6FFDDCFF7FFF86A0800F550640AD8B45F
:101D4400A6EF0EF0A8EF0EF0BBEF0EF082C0D9FFA5
:101D540083C0DAFFDECFF6FFDDCFF7FFF86A0800B5
:101D6400F550690AD8A4B9EF0EF0BBEF0EF0FBEF03
:101D74000EF082C0D9FF83C0DAFFDE2A000EDD2216
:101D840084C0D9FF85C0DAFFDFCF86F0020EDE26DD
:101D9400DFCF87F0000EDD2286C0D9FF87C0DAFFCF
:101DA400DECF94F0DDCF95F0000E95BFFF0E966F59
:101DB400976F986F996F9A6F9B6F80C01CF081C06A
:101DC4001DF094C01EF095C01FF096C020F097C07F
:101DD40021F098C022F099C023F09AC024F09BC04F
:101DE40025F060EC1BF01CC080F01DC081F03CEFBE
:101DF40011F082C0D9FF83C0DAFFDECF01F0DDCF5E
:101E040002F0330E036E100E046E000E066E020E08
:101E1400056E45EC25F001500210D8B414EF0FF014
:101E240016EF0FF031EF0FF082C0D9FF83C0DAFF55
:101E3400DECF01F0DDCF02F0390E036E100E046E1A
:101E4400000E066E020E056E45EC25F001500210E0
:101E5400D8A42FEF0FF031EF0FF075EF0FF0020E53
:101E640082C0D9FF83C0DAFFDE26000EDD2284C0E3
:101E7400D9FF85C0DAFFDFCF86F0040EDE26DFCF80
:101E840087F0000EDD2286C0D9FF87C0DAFFDECFDF
:101E940088F0DECF89F0DECF8AF0DECF8BF088C009
:101EA4008CF089C08DF08AC08EF08BC08FF0000159
:101EB400906B8FBF906990C091F090C092F090C0E9
:101EC40093F08CC094F08DC095F08EC096F08FC0C6
:101ED40097F090C098F091C099F092C09AF093C096
:101EE4009BF0DFEF0EF0660E0001A819D8A47DEF79
:101EF4000FF07FEF0FF0C0EF0FF082C0D9FF83C067
:101F0400DAFFDECFF6FFDDCFF7FFF86A0800F5CF82
:101F1400ABF082C0D9FF83C0DAFFDE2A000EDD22D7
:101F240084C0D9FF85C0DAFFDFCF86F0040EDE2639
:101F3400DFCF87F0000EDD2286C0D9FF87C0DAFF2D
:101F4400DECFA4F0DECFA5F0DECFA6F0DECFA7F083
:101F540080C040F081C041F0A4C042F0A5C043F06D
:101F6400A6C044F0A7C045F0ABC046F022EC08F090
:101F740040C080F041C081F03CEF11F0A80E016E2A
:101F8400000E026E360E036E100E046E000E066E08
:101F9400020E056E45EC25F001500210D8A4D5EFD1
:101FA4000FF0D7EF0FF048EF10F082C0D9FF83C0D5
:101FB400DAFFDECF86F0DDCF87F0010E0001862741
:101FC400000E872386C0F6FF87C0F7FFF86A080073
:101FD400F5CFABF0BF0E866FFF0E876F82C0D9FFBF
:101FE40083C0DAFFDECFF6FFDDCFF7FFF86A080023
:101FF400F550886F896B86518827875189238951C9
:1020040007E11A0E885DD8B00AEF10F00CEF10F05B
:1020140026EF10F084C0D9FF85C0DAFFDFCF86F049
:10202400040EDE26DFCF87F0000EDD2286C0D9FF46
:1020340087C0DAFFDECFA4F0DECFA5F0DECFA6F0B6
:10204400DECFA7F03EEF10F084C0D9FF85C0DAFFE1
:10205400DFCF86F0040EDE26DFCF87F0000EDD2210
:1020640086C0D9FF87C0DAFFDECFA4F0DECFA5F0AB
:10207400DECFA6F0DECFA7F0020E82C0D9FF83C068
:10208400DAFFDE26000EDD22AAEF0FF082C0D9FFB0
:1020940083C0DAFFDECFF6FFDDCFF7FFF86A080072
:1020A400F550750AD8A459EF10F05BEF10F09DEFCE
:1020B40010F082C0D9FF83C0DAFFDE2A000EDD22D1
:1020C40084C0D9FF85C0DAFFDFCF86F0020EDE269A
:1020D400DFCF87F0000EDD2286C0D9FF87C0DAFF8C
:1020E400DECF88F0DDCF89F088C09CF089C09DF0F8
:1020F40000019E6B9F6BA06BA16BA26BA36B80C056
:102104001CF081C01DF09CC01EF09DC01FF09EC03D
:1021140020F09FC021F0A0C022F0A1C023F0A2C0F3
:1021240024F0A3C025F0DBEC1DF01CC080F01DC022
:1021340081F03CEF11F082C0D9FF83C0DAFFDECF1B
:1021440001F0DDCF02F0300E036E100E046E000EAF
:10215400066E020E056E45EC25F001500210D8A45F
:10216400B6EF10F0B8EF10F0E7EF10F0020E82C0F7
:10217400D9FF83C0DAFFDE26000EDD2284C0D9FF3A
:1021840085C0DAFFDFCF86F0040EDE26DFCF87F0CE
:10219400000EDD2286C0D9FF87C0DAFFDECF88F0CB
:1021A400DECF89F0DECF8AF0DECF8BF000018851DC
:1021B4009C6F89519D6F8A519E6F8B519F6FA06B4D
:1021C400A16BA26BA36B81EF10F082C0D9FF83C017
:1021D400DAFFDECFF6FFDDCFF7FFF86A0800F5502F
:1021E400250AD8A4F8EF10F0FAEF10F012EF11F06E
:1021F40082C0D9FF83C0DAFFDE2A000EDD22000E82
:10220400026E250E016E80C003F081C004F0CDEC97
:1022140028F0000E0001816F010E806F3CEF11F079
:1022240082C0D9FF83C0DAFFDE2A000EDD22000E51
:102234000001816F000E806F3CEF11F082C0D9FF66
:1022440083C0DAFFDECFF6FFDDCFF7FFF86A0800C0
:10225400F550016E026A80C003F081C004F0CDEC39
:1022640028F082C0D9FF83C0DAFFDE2A000EDD2207
:102274000BEF11F012002B50800B346E2B502B24DB
:10228400366E2AAE48EF11F04AEF11F04BEF11F021
:1022940036803650D8B451EF11F053EF11F068EF97
:1022A40011F03628D8A459EF11F05BEF11F063EF69
:1022B40011F0000E286E000E296E000E2A6E000E1C
:1022C4002B6E2A8E000E2B6E70EF11F0000E286E0E
:1022D400000E296E000E2A6E000E2B6E2F50800BFE
:1022E400356E34503518D8B47AEF11F07CEF11F014
:1022F4007DEF11F0348C2F502F24356E2EAE85EFE8
:1023040011F087EF11F088EF11F035803550D8B413
:102314008EEF11F090EF11F0A5EF11F03528D8A44D
:1023240096EF11F098EF11F0A0EF11F0000E2C6E63
:10233400000E2D6E000E2E6E000E2F6E2E8E000ED1
:102344002F6EADEF11F0000E2C6E000E2D6E000EF0
:102354002E6E000E2F6E3650355CD8B0B4EF11F0EF
:10236400B6EF11F0DDEF11F034ACBBEF11F0BDEFBF
:1023740011F0BFEF11F0800E341A36C037F035C0BB
:1023840036F037C035F028C037F02CC028F037C0FD
:102394002CF029C037F02DC029F037C02DF02AC009
:1023A40037F02EC02AF037C02EF02BC037F02FC0E4
:1023B4002BF037C02FF0000E376E365035C030F09A
:1023C400316A305E000E315A31BEF2EF11F03150F5
:1023D40009E11A0E305CD8A0F2EF11F0F4EF11F01D
:1023E4002BEF12F0285029102A102B10D8A4FDEF3F
:1023F40011F000EF12F0010E01EF12F0000E376E33
:10240400000E286E000E296E000E2A6E000E2B6E32
:1024140035C036F034EF12F037A013EF12F015EF99
:1024240012F01BEF12F0D89037300109376E1DEF10
:1024340012F0D890373228A022EF12F024EF12F0D5
:1024440025EF12F0378E2B342B322A3229322832E0
:10245400362A3550365CD8A032EF12F034EF12F041
:102464000EEF12F034BC39EF12F03BEF12F07BEFB9
:1024740012F03650D8A441EF12F043EF12F04DEFB2
:1024840012F0000E286E000E296E000E2A6E000E49
:102494002B6E9CEF13F02C5028262D5029222E5001
:1024A4002A222F502B222BA05AEF12F05CEF12F0AD
:1024B40008EF13F037A061EF12F063EF12F069EF49
:1024C40012F0D89037300109376E6BEF12F0D890C4
:1024D400373228A070EF12F072EF12F073EF12F09F
:1024E400378E2B342B322A3229322832362A08EFFF
:1024F40013F02C50285C2D5029582E502A582B505C
:10250400800A306E2F50800A3058D8B08CEF12F009
:102514008EEF12F0B9EF12F028502C5C306E295077
:102524002D58316E2A502E58326E2B502F58336E40
:10253400FF0E3024286EFF0E3120296EFF0E32204C
:102544002A6EFF0E33202B6E800E341A376C3750F0
:10255400D8A4AFEF12F0B1EF12F0C1EF12F0010EF8
:102564002826000E29222A222B22C1EF12F02C50F9
:10257400285E2D50295A2E502A5A2F502B5A285053
:1025840029102A102B10D8A4CAEF12F0CCEF12F0A5
:1025940001EF13F03750D8A4D2EF12F0D4EF12F0B9
:1025A40001EF13F0000E286E000E296E000E2A6E45
:1025B400000E2B6E9CEF13F0D890283629362A365D
:1025C4002B3637AEE8EF12F0EAEF12F0EBEF12F031
:1025D400288037A0F0EF12F0F2EF12F0F6EF12F0CD
:1025E400D8803736F8EF12F0D89037363650D8B452
:1025F400FEEF12F000EF13F001EF13F036062AAEEF
:1026040006EF13F008EF13F0DEEF12F0000E356E54
:1026140037AE0FEF13F011EF13F029EF13F037C0BB
:1026240030F07F0E3016D8B41AEF13F01CEF13F00D
:1026340020EF13F0010E356E29EF13F028A025EFDB
:1026440013F027EF13F029EF13F01CEF13F03550BC
:10265400D8B42FEF13F031EF13F05CEF13F0010E49
:102664002826000E29222A222B222BA03CEF13F02D
:102674003EEF13F05CEF13F028C030F029C031F0C6
:102684002AC032F02BC033F0333433323232313299
:10269400303230C028F031C029F032C02AF033C0C3
:1026A4002BF03628D8B459EF13F05BEF13F05CEF3E
:1026B40013F0362A3628D8B462EF13F064EF13F01F
:1026C4006CEF13F03650D8A46AEF13F06CEF13F0EC
:1026D4007EEF13F0000E286E000E296E000E2A6E97
:1026E400000E2B6E3650D8A47AEF13F07CEF13F063
:1026F4007EEF13F0000E346E36A083EF13F085EFF7
:1027040013F088EF13F02A8E89EF13F02A9ED890E5
:1027140036302B6E34AE91EF13F093EF13F094EF49
:1027240013F02B8E28C028F029C029F02AC02AF0E3
:102734002BC02BF0120055EC30F0B10E0B6E010ED5
:102744000C6EFD0E0D6E000E0E6ED8EC25F0410ED3
:102754000001FD19D8A4B1EF13F0B3EF13F0EBEFC0
:1027640013F0F451D8A4B9EF13F0BBEF13F0EBEF6F
:1027740013F0FE0E0B6E000E0C6E21EC2CF0230EEB
:102784000001FD6FBB0E1A6E010E1B6E010E1C6E56
:10279400010E1D6E190E1E6E100E1F6E54EC2BF0E2
:1027A400060E0001E86F130EE76FAD0EE82EFED79C
:1027B400E72FFCD7E82FFAD700D0BB0E0F6E010E1F
:1027C400106E010E116ED0EC2CF00001F42B39EFD9
:1027D40014F0410EFD19D8A4F2EF13F0F4EF13F046
:1027E40039EF14F0F405D8A4FAEF13F0FCEF13F06A
:1027F40039EF14F0000EF46FFE0E0B6E000E0C6E2B
:102804005CEC2CF0BB0E0F6E010E106E010E116EFF
:10281400D0EC2CF0640E016E020E026E000E046EFB
:10282400000E036E000E066E640E056E6EEC21F053
:10283400000E016E020E026E000E046E000E036E98
:10284400000E066E640E056E6EEC21F0000E0001A3
:10285400F26F000E0101086F000E096F000E0A6F7F
:10286400000E0B6F010E0001FF6F000EF16F000EE2
:10287400EA6F000EE96FA40EE925D96E010EEA2174
:10288400DA6EFD51DE18D8A44AEF14F04CEF14F0C0
:1028940050EF14F0010EF36F60EF14F0E94BEA2BE4
:1028A400EABF5EEF14F0EA5109E1070EE95DD8A032
:1028B4005EEF14F060EF14F03DEF14F0F305D8B4BC
:1028C40066EF14F068EF14F0CFEF14F0F405D8A419
:1028D4006EEF14F070EF14F0CFEF14F0230EFD1927
:1028E400D8B477EF14F079EF14F0CFEF14F0F105CA
:1028F400D8A47FEF14F081EF14F0B6EF14F0BB0E00
:102904000F6E010E106E010E116ED0EC2CF0640EE1
:10291400016E020E026E000E046E000E036E000EB7
:10292400066E640E056E6EEC21F0000E016E020E52
:10293400026E000E046E000E036E000E066E640E30
:10294400056E6EEC21F0000E0001F26F000E010125
:10295400086F000E096F000E0A6F000E0B6F010E58
:102964000001FF6F000EF16F640EF225D96EDA6A72
:10297400020EDA22FDC0DFFFBB0E1A6E010E1B6EC3
:10298400010E1C6EFFC01DF0FDC01EF088EC2EF081
:102994000001F22BFF2BC4EF15F0F305D8A4D5EFFB
:1029A40014F0D7EF14F0C4EF15F0F405D8A4DDEF5C
:1029B40014F0DFEF14F0C4EF15F02AEF15F02A0E2F
:1029C40001010E6F640E0001F225D96EDA6A020E5F
:1029D400DA222A0EDF6EF22B4BEF15F02F0E0101D7
:1029E4000E6F640E0001F225D96EDA6A020EDA2245
:1029F4002F0EDF6EEDEF14F02D0E01010E6F640E3D
:102A04000001F225D96EDA6A020EDA222D0EDF6E8B
:102A1400EDEF14F02B0E01010E6F640E0001F22590
:102A2400D96EDA6A020EDA222B0EDF6EEDEF14F0A5
:102A34003D0E01010E6F010E0001F16F640EF225CF
:102A4400D96EDA6A020EDA22000EDF6E4BEF15F051
:102A5400FD51E76FE86BE851000AD8B434EF15F084
:102A64004BEF15F0E7512A0AD8B4FEEF14F0010A2F
:102A7400D8B40CEF15F0040AD8B4E1EF14F0120A3C
:102A8400D8B41AEF15F0780AD8B4F0EF14F04BEF7D
:102A940015F0BB0E1A6E010E1B6E010E1C6EFFC0EC
:102AA4001DF00EC11EF088EC2EF03D0E01010E1932
:102AB400D8A45FEF15F061EF15F0B9EF15F0640ECF
:102AC400066E020E076E000E086E020E096EDDEC35
:102AD4001EF0000E516E020E526E820E536E010EE7
:102AE400546EAFEC19F0770E0001B26F010EB36FA4
:102AF4003C0EB46F100EB56F82C1B6F083C1B7F04F
:102B040084C1B8F085C1B9F03CEC2EF0BB0E1A6E4E
:102B1400010E1B6E040E1C6E770E016E010E026E0A
:102B2400E5EC2FF0015014081D6E770E1E6E010E99
:102B34001F6E54EC2BF0640E016E020E026E000E3A
:102B4400046E000E036E000E066E640E056E6EECCF
:102B540021F0000E016E020E026E000E046E000ED5
:102B6400036E000E066E640E056E6EEC21F000011D
:102B7400FF2B000E0101086F000E096F000E0A6F93
:102B8400000E0B6F000E0001F36F230EFD6F9FEF1D
:102B940013F000EF00F01250800B1B6E1250122441
:102BA400216E11AED8EF15F0DAEF15F0DBEF15F06A
:102BB40021802150D8B4E1EF15F0E3EF15F0F6EFE2
:102BC40015F02128D8A4E9EF15F0EBEF15F0F3EF99
:102BD40015F0000E0F6E000E106E000E116E000E3A
:102BE400126E118EFEEF15F0000E0F6E000E106EB9
:102BF400000E116E000E126E1650800B1B1A16502A
:102C04001624206E15AE09EF16F00BEF16F00CEF3C
:102C140016F020802050D8B412EF16F014EF16F0FE
:102C240027EF16F02028D8A41AEF16F01CEF16F0A0
:102C340024EF16F0000E136E000E146E000E156EC7
:102C4400000E166E158E2FEF16F0000E136E000E8A
:102C5400146E000E156E000E166E2050D8B435EFAB
:102C640016F037EF16F03FEF16F02150D8A43DEFE1
:102C740016F03FEF16F049EF16F0000E0F6E000E3F
:102C8400106E000E116E000E126EE1EF17F015506B
:102C94000F02F3CF26F0F4CF27F026501C6E1D6AE6
:102CA4001E6A1F6A2750226E236A246A256A1450FA
:102CB4001002F3CF26F0F4CF27F026501C26000E86
:102CC4001D221E221F2227502226000E23222422E8
:102CD400252213501102F3CF26F0F4CF27F026500B
:102CE4001C26000E1D221E221F2227502226000E03
:102CF4002322242225221EC01FF01DC01EF01CC04A
:102D04001DF01C6A13501002F3CF26F0F4CF27F005
:102D140026501C2627501D22000E1E22000E1F22A4
:102D240014500F02F3CF26F0F4CF27F026501C26C0
:102D340027501D22000E1E22000E1F221EC01FF04F
:102D44001DC01EF01CC01DF01C6A13500F02F3CFEF
:102D540026F0F4CF27F026501C2627501D22000E03
:102D64001E22000E1F2215501002F3CF26F0F4CFBE
:102D740027F02650222627502322000E2422000E5C
:102D8400252214501102F3CF26F0F4CF27F0265059
:102D9400222627502322000E2422000E252215501D
:102DA4001102F3CF26F0F4CF27F02650176E2750E8
:102DB400186E196A1A6A19C01AF018C019F017C0E7
:102DC40018F0176A1750222618502322195024226B
:102DD4001A5025221CC017F01DC018F01EC019F08F
:102DE4001FC01AF0190EFCEF16F0D8901A321932DF
:102DF40018321732E82EF7EF16F017502226185023
:102E04002322195024221A5025221EC01FF01DC04F
:102E14001EF01CC01DF01C6A205021C017F0186A57
:102E24001726000E1822820E1724266EFF0E182075
:102E3400276E32EF17F0D890223623362436253603
:102E44001FAE27EF17F029EF17F02AEF17F02280B3
:102E5400D8901C361D361E361F362606D8A02706E7
:102E640024AE37EF17F039EF17F01DEF17F0000E0F
:102E7400206E1FAE40EF17F042EF17F066EF17F029
:102E8400FF0E1C14176EFF0E1D14186EFF0E1E1479
:102E9400196E7F0E1F141A6E1750181019101A107D
:102EA400D8B457EF17F059EF17F05DEF17F0010E94
:102EB400206E66EF17F022A062EF17F064EF17F0B0
:102EC40066EF17F059EF17F02050D8B46CEF17F0F5
:102ED4006EEF17F092EF17F0010E2226000E232258
:102EE4002422252225A079EF17F07BEF17F092EF2B
:102EF40017F022C017F023C018F024C019F025C021
:102F04001AF01A341A3219321832173217C022F052
:102F140018C023F019C024F01AC025F0264A272A25
:102F240027BE9DEF17F0275008E12628D8A09DEF73
:102F340017F09FEF17F0A9EF17F0000E226E000EA6
:102F4400236E800E246E7F0E256ED7EF17F027BEFA
:102F5400B6EF17F0275006E12604D8B0B4EF17F007
:102F6400B6EF17F0C2EF17F0000E226E000E236EBC
:102F7400000E246E000E256E000E1B6ED7EF17F0A8
:102F840026C021F0FF0E2216FF0E23167F0E2416F4
:102F9400000E251621A0D1EF17F0D3EF17F0D4EFD0
:102FA40017F0248ED8902130256E1B50251222C094
:102FB4000FF023C010F024C011F025C012F012004D
:102FC4000450800B116E04500424186E03AEEDEF10
:102FD40017F0EFEF17F0F0EF17F018801850D8B48F
:102FE400F6EF17F0F8EF17F00DEF18F01828D8A443
:102FF400FEEF17F000EF18F008EF18F0000E016E66
:10300400000E026E000E036E000E046E038E000EA0
:10301400046E15EF18F0000E016E000E026E000E25
:10302400036E000E046E0850800B111A0850082419
:10303400196E07AE20EF18F022EF18F023EF18F006
:1030440019801950D8B429EF18F02BEF18F040EF7D
:1030540018F01928D8A431EF18F033EF18F03BEF2B
:1030640018F0000E056E000E066E000E076E000EC0
:10307400086E078E000E086E48EF18F0000E056EFD
:10308400000E066E000E076E000E086E0550061048
:1030940007100810D8A451EF18F053EF18F06BEF95
:1030A40018F0000E016E000E026E000E036E000E8C
:1030B400046E800E03127F0E04121150041201C01C
:1030C40001F002C002F003C003F004C004F0AEEF4C
:1030D40019F01850D8A471EF18F073EF18F07DEFC1
:1030E40018F0000E016E000E026E000E036E000E4C
:1030F400046EAEEF19F0195018C009F00A6A095E9F
:10310400000E0A5A7F0E0924126E000E0A20136E56
:1031140001C00DF002C00EF003C00FF004C010F0A7
:10312400000E016E000E026E000E036E000E046EA1
:10313400000E146E000E156E000E166E000E176E45
:10314400000E196EDEEF18F01950D8B4ACEF18F079
:10315400AEEF18F0C5EF18F0D8900D360E360F36D6
:103164001036D890013602360336043617AEBDEF5A
:1031740018F0BFEF18F0C0EF18F00180D8901436A3
:1031840015361636173605500D5C06500E58075086
:103194000F5808501058D8A0D2EF18F0D4EF18F0F8
:1031A400DDEF18F0178C05500D5E06500E5A0750CF
:1031B4000F5A0850105A192A190E1964E4EF18F01E
:1031C400E6EF18F0A6EF18F00D500E100F101010C7
:1031D400D8B4EFEF18F0F1EF18F009EF19F01480FC
:1031E40009EF19F0D890013602360336043617AECB
:1031F400FEEF18F000EF19F001EF19F00180D890FC
:1032040014361536163617361206D8A0130603AE32
:103214000EEF19F010EF19F0F4EF18F0000E196E1C
:1032240017AE17EF19F019EF19F03DEF19F0FF0E73
:103234001414096EFF0E15140A6EFF0E16140B6E8D
:103244007F0E17140C6E09500A100B100C10D8B412
:103254002EEF19F030EF19F034EF19F0010E196E5A
:103264003DEF19F001A039EF19F03BEF19F03DEFF4
:1032740019F030EF19F01950D8B443EF19F045EFB5
:1032840019F069EF19F0010E0126000E0222032243
:10329400042204A050EF19F052EF19F069EF19F06D
:1032A40001C009F002C00AF003C00BF004C00CF026
:1032B4000C340C320B320A32093209C001F00AC054
:1032C40002F00BC003F00CC004F0124A132A13BE20
:1032D40074EF19F0135008E11228D8A074EF19F014
:1032E40076EF19F081EF19F0000E136E1268000EDC
:1032F400016E000E026E000E036E000E046E13BE0D
:103304008EEF19F0135006E11204D8B08CEF19F0C7
:103314008EEF19F09CEF19F0000E136E000E126E72
:10332400000E016E000E026E000E036E000E046E9F
:10333400000E116E12C018F018A0A3EF19F0A5EF3B
:1033440019F0A8EF19F0038EA9EF19F0039ED89095
:103354001830046E5FEF18F01200930E016E000E29
:10336400026E4AEC30F0000E0001E66F000EE56FCD
:103374003EEF1BF0E5515124D96EE6515220DA6E2E
:10338400DF50926F9251C9EC2FF001500210D8A473
:10339400CEEF19F0D0EF19F0DAEF19F02E0E00018C
:1033A4009219D8A4D8EF19F0DAEF19F0F0EF1AF067
:1033B400000E00018E6F000E8F6F000E906F000ED6
:1033C400916F000E896F000E886FCD0E8A6FCC0E40
:1033D4008B6FCC0E8C6F3D0E8D6FBEEF1AF000011B
:1033E400E5515124D96EE6515220DA6E2E0EDE18C4
:1033F400D8A4FFEF19F001EF1AF00AEF1AF0000E4B
:10340400896F010E886F0001E54BE62BBEEF1AF0C1
:1034140088518911D8A411EF1AF013EF1AF05CEF58
:103424001AF0000E136E000E146E200E156E410E6F
:10343400166E8EC00FF08FC010F090C011F091C0C6
:1034440012F0CDEC15F00FC028F010C029F011C017
:103454002AF012C02BF0D00E556EFF0E566E0001EE
:10346400E5515124D96EE6515220DA6EDF50576E81
:10347400586A555057265650582257C001F058C024
:1034840002F0036A046A000ED0EC1FF001C02CF0B5
:1034940002C02DF003C02EF004C02FF03DEC11F05B
:1034A40028C08EF029C08FF02AC090F02BC091F074
:1034B40005EF1AF08EC028F08FC029F090C02AF0D2
:1034C40091C02BF08AC013F08BC014F08CC015F09F
:1034D4008DC016F0D00E556EFF0E566EE551512478
:1034E400D96EE6515220DA6EDF50576E586A555045
:1034F40057265650582257C001F058C002F0036AAC
:10350400046A000ED0EC1FF001C00FF002C010F0EE
:1035140003C011F004C012F0CDEC15F00FC02CF074
:1035240010C02DF011C02EF012C02FF03DEC11F0A0
:1035340028C08EF029C08FF02AC090F02BC091F0E3
:103544008AC001F08BC002F08CC003F08DC004F07F
:10355400000E056E000E066E200E076E410E086EFC
:10356400E2EC17F001C08AF002C08BF003C08CF0CB
:1035740004C08DF005EF1AF0E5515124D96EE651DF
:103584005220DA6EDF50C9EC2FF001500210D8A49B
:10359400CEEF1AF0D0EF1AF0F1EF19F00001E55177
:1035A4005124D96EE6515220DA6E2E0EDE18D8B4AC
:1035B400DEEF1AF0E0EF1AF0F1EF19F0930E496E16
:1035C400000E4A6E8EC04BF08FC04CF090C04DF090
:1035D40091C04EF013EC2FF03EEF1BF0200E921929
:1035E400D8A4F7EF1AF0F9EF1AF0FEEF1AF0000181
:1035F400E54BE62B3EEF1BF0930E016E000E026EC0
:10360400ABEC2EF001C080F002C081F003C082F068
:1036140004C083F0930E016E000E026EABEC2EF02C
:1036240001C084F002C085F003C086F004C087F0B6
:10363400930E496E000E4A6E84C040F085C041F07E
:1036440086C042F087C043F080C044F081C045F09A
:1036540082C046F083C047F0000192517DEC23F014
:1036640040C04BF041C04CF042C04DF043C04EF05E
:1036740013EC2FF0F9EF1AF00001E5515124D96E43
:10368400E6515220DA6EDF50D8A44BEF1BF04DEF19
:103694001BF0BCEF19F0930E016E000E026EABEC42
:1036A4002EF053C0D9FF54C0DAFF01C0DEFF02C0C0
:1036B400DEFF03C0DEFF04C0DEFF12001EC036F0D2
:1036C4001FC037F020C038F021C039F022C03AF0D2
:1036D40023C03BF024C03CF025C03DF03DBE75EF57
:1036E4001BF078EF1BF0010E79EF1BF0000E346E27
:1036F400356A34503510D8B482EF1BF084EF1BF0D8
:1037040094EF1BF03D1E3C1E3B1E3A1E391E381E14
:10371400371E366C000E3722382239223A223B22D9
:103724003C223D220001EEBF9AEF1BF09CEF1BF000
:103734009DEF1BF0EF93EEBFAAEF1BF0EE5106E1F5
:10374400ED05D8B0A8EF1BF0AAEF1BF0B0EF1BF00B
:10375400000E316E010E306EB4EF1BF0EDC030F090
:10376400EEC031F0EBC032F0ECC033F03450351021
:10377400D8A4BFEF1BF0C1EF1BF0C8EF1BF0EFA5FF
:10378400C6EF1BF0C8EF1BF0CBEF1BF03206D8A03E
:103794003306000E3F6E4F0E3E6E000E0101766F33
:1037A40050EF1CF03E06D8A03F06270E3E24D96EEB
:1037B400010E3F20DA6E36C001F037C002F038C087
:1037C40003F039C004F03AC005F03BC006F03CC039
:1037D40007F03DC008F00A0E096E000E0A6E000ED6
:1037E4000B6E000E0C6E000E0D6E000E0E6E000EB3
:1037F4000F6E000E106E29EC22F001C026F002C0FC
:1038040027F003C028F004C029F005C02AF006C040
:103814002BF007C02CF008C02DF026C013F028C0F0
:1038240014F035EC2FF01350300FDF6E3006D8A0B3
:1038340031063206D8A0330636C001F037C002F094
:1038440038C003F039C004F03AC005F03BC006F0BC
:103854003CC007F03DC008F00A0E096E000E0A6E67
:10386400000E0B6E000E0C6E000E0D6E000E0E6E32
:10387400000E0F6E000E106EAAEC20F001C036F0A0
:1038840002C037F003C038F004C039F005C03AF084
:1038940006C03BF007C03CF008C03DF03FBE5BEF04
:1038A4001CF03F5008E13E04D8A05BEF1CF05DEF34
:1038B4001CF08EEF1CF036503710381039103A10C7
:1038C4003B103C103D10D8A46AEF1CF06CEF1CF0C8
:1038D400D4EF1BF031BE79EF1CF0315006E1300417
:1038E400D8B077EF1CF079EF1CF0D4EF1BF033BEA7
:1038F40084EF1CF0335008E13204D8A084EF1CF0AC
:1039040086EF1CF08EEF1CF00001EFB38CEF1CF07F
:103914008EEF1CF0D4EF1BF034503510D8A495EF83
:103924001CF097EF1CF09FEF1CF00001EFA59DEF3A
:103934001CF09FEF1CF0BDEF1CF03E06D8A03F0624
:1039440034503510D8A4A9EF1CF0ABEF1CF0B1EF44
:103954001CF0000E2F6E2B0E2E6EB5EF1CF0000E19
:103964002F6E2D0E2E6E270E3E24D96E010E3F2093
:10397400DA6E2EC0DFFF1CC011F01DC012F0270E3E
:103984003E24136E010E3F20146E32C015F033C076
:1039940016F032EC29F011C01CF012C01DF0120018
:1039A40000C12AF001C12BF002C12CF003C12DF09B
:1039B4001AC02AF01BC02BF01CC02CF01DC02DF027
:1039C400810E1E6EFF0E1F6E2AC020F02BC021F048
:1039D4002CC022F02DC023F0180EF6EF1CF0D89066
:1039E4002332223221322032E82EF1EF1CF0205013
:1039F4001E24286E000E1F20296E29BE0BEF1DF019
:103A0400295009E1170E285CD8A00BEF1DF00DEF2B
:103A14001DF017EF1DF01AC01AF01BC01BF01CC0DC
:103A24001CF01DC01DF0DAEF1DF029BE1CEF1DF0C7
:103A34001EEF1DF08EEF1DF028C01EF0FF0E1F6E4E
:103A4400FF0E206E7F0E216E000E226E1E662DEF7D
:103A54001DF035EF1DF022342232213220321F3284
:103A64001E2E28EF1DF01FC024F020C025F021C019
:103A740026F022C027F024502A141E6E25502B1441
:103A84001F6E26502C14206E27502D14216E1E50AC
:103A94001F1020102110D8A452EF1DF054EF1DF078
:103AA40056EF1DF00DEF1DF02AC01EF02BC01FF0C5
:103AB4002CC020F02DC021F0200E66EF1DF0D89010
:103AC400213220321F321E32E82E61EF1DF01E50CB
:103AD4001F1020102110D8B472EF1DF074EF1DF0E8
:103AE4007CEF1DF024502A2625502B2226502C2210
:103AF40027502D22241C1E6E251C1F6E261C206E92
:103B0400271C216E1E502A161F502B1620502C16CF
:103B140021502D16D2EF1DF02AC01EF02BC01FF02D
:103B24002CC020F02DC021F0200E9EEF1DF0D89067
:103B3400213220321F321E32E82E99EF1DF01E5022
:103B44001F1020102110D8A4AAEF1DF0ACEF1DF017
:103B5400B6EF1DF0000E2A6E000E2B6E000E2C6EBA
:103B6400000E2D6ED2EF1DF0D8902A341E6E2B3429
:103B74001F6E2C34206E2D34216E1E501F10201009
:103B84002110D8B4C8EF1DF0CAEF1DF0D2EF1DF01C
:103B9400000E2A6E000E2B6E800E2C6EBF0E2D6E44
:103BA4002AC01AF02BC01BF02CC01CF02DC01DF035
:103BB40012000001EEBFE1EF1DF0E3EF1DF0E4EFB2
:103BC4001DF0EF93EEBFF1EF1DF0EE5106E1ED05B0
:103BD400D8B0EFEF1DF0F1EF1DF0F7EF1DF0000E80
:103BE4002F6E010E2E6EFBEF1DF0EDC02EF0EEC019
:103BF4002FF0EBC030F0ECC031F01EC032F01FC02B
:103C040033F020C034F021C035F022C036F023C098
:103C140037F024C038F025C039F0000E3B6E4F0E4B
:103C24003A6E000E0101766F8EEF1EF03A06D8A0B0
:103C34003B06270E3A24D96E010E3B20DA6E32C0C1
:103C440001F033C002F034C003F035C004F036C0D4
:103C540005F037C006F038C007F039C008F00A0E86
:103C6400096E000E0A6E000E0B6E000E0C6E000E36
:103C74000D6E000E0E6E000E0F6E000E106E65ECD3
:103C840028F001C026F002C027F003C028F004C0C9
:103C940029F005C02AF006C02BF007C02CF008C09C
:103CA4002DF02650300FDF6E2E06D8A02F063006DA
:103CB400D8A0310632C001F033C002F034C003F0A2
:103CC40035C004F036C005F037C006F038C007F040
:103CD40039C008F00A0E096E000E0A6E000E0B6E53
:103CE400000E0C6E000E0D6E000E0E6E000E0F6EAA
:103CF400000E106EEDEC27F001C032F002C033F07C
:103D040003C034F004C035F005C036F006C037F007
:103D140007C038F008C039F03A503B10D8B495EFDA
:103D24001EF097EF1EF0C8EF1EF03250331034101F
:103D340035103610371038103910D8A4A4EF1EF0FF
:103D4400A6EF1EF018EF1EF02FBEB3EF1EF02F509B
:103D540006E12E04D8B0B1EF1EF0B3EF1EF018EF59
:103D64001EF031BEBEEF1EF0315008E13004D8A081
:103D7400BEEF1EF0C0EF1EF0C8EF1EF00001EFB35F
:103D8400C6EF1EF0C8EF1EF018EF1EF01CC011F0B5
:103D94001DC012F0270E3A24136E010E3B20146E40
:103DA40030C015F031C016F032EC29F011C01CF00F
:103DB40012C01DF01200120E016E000E026E3FECD6
:103DC40030F0000E0F6E000E0E6E000E116E000E1F
:103DD400106E9CEF1FF00E500624D96E0F50072072
:103DE400DA6EDF500D6E200E0D18D8A4FCEF1EF015
:103DF400FEEF1EF002EF1FF00E4A0F2A9CEF1FF099
:103E04000D50C9EC2FF001500210D8A40CEF1FF094
:103E14000EEF1FF02BEF1FF02E0E0D18D8A415EF88
:103E24001FF017EF1FF069EF1FF02BEF1FF00E507C
:103E34000624D96E0F500720DA6E10500824E16E64
:103E440011500920E26EDFCFE7FF0E4A0F2A104A15
:103E5400112A0E500624D96E0F500720DA6EDF5057
:103E6400C9EC2FF001500210D8A43BEF1FF03DEF36
:103E74001FF019EF1FF00E500624D96E0F500720C3
:103E8400DA6E2E0EDE18D8B44AEF1FF04CEF1FF096
:103E940019EF1FF010500824D96E11500920DA6E62
:103EA400200EDF6E104A112A9CEF1FF0120E016ED5
:103EB400000E026E16EC30F00A6E10500824D96E13
:103EC40011500920DA6E0AC0DFFF104A112A762841
:103ED40008E17728D8B471EF1FF073EF1FF092EF69
:103EE4001FF0120E7624D96E000E7720DA6EDF50A2
:103EF4003FEC2DF001C00AF002C00BF00D503FEC76
:103F04002DF001500A5C0B50800A0C6E0250800A9E
:103F14000C58D8B090EF1FF092EF1FF058EF1FF03D
:103F2400120E016E000E026E0DC003F000EC30F0B4
:103F3400FEEF1EF00E500624D96E0F500720DA6EE5
:103F4400DF50D8A4A8EF1FF0AAEF1FF0EDEF1EF08A
:103F5400BDEF1FF0120E016E000E026E16EC30F073
:103F64000A6E10500824D96E11500920DA6E0AC066
:103F7400DFFF104A112A762806E17728D8A4C5EF76
:103F84001FF0C7EF1FF0ACEF1FF010500824D96EDC
:103F940011500920DA6E000EDF6E1200096E09500E
:103FA400D8B4D7EF1FF0D9EF1FF0FBEF1FF004BE1A
:103FB400E0EF1FF0DEEF1FF0FBEF1FF001C005F094
:103FC40002C006F003C007F004C008F0051E061E78
:103FD400071E081E052A000E06220722082205C015
:103FE4000BF006C00CF007C00DF008C00EF003EF94
:103FF40020F001C00BF002C00CF003C00DF004C0AF
:104004000EF00150021003100410D8A40CEF20F09D
:104014000EEF20F018EF20F0000E016E000E026E7D
:10402400000E036E000E046EA9EF20F0960E0A6EC9
:1040340022EF20F00A2AD8900E320D320C320B32C5
:10404400000E0B14056E000E0C14066E000E0D14FB
:10405400076EFE0E0E14086E0550061007100810A9
:10406400D8A437EF20F039EF20F01CEF20F047EF11
:1040740020F00A2A010E0B26000E0C220D220E221D
:10408400D8900E320D320C320B32000E0B14056E2A
:10409400000E0C14066E000E0D14076EFF0E0E14A7
:1040A400086E0550061007100810D8A45CEF20F025
:1040B4005EEF20F03BEF20F066EF20F00A06D89088
:1040C4000B360C360D360E360DBE6BEF20F06DEF51
:1040D40020F075EF20F0020E0A6073EF20F075EF08
:1040E40020F060EF20F00AB07AEF20F07CEF20F0AF
:1040F4007DEF20F00D9ED8900A320AC005F0066AC2
:10410400076A086A05C008F0076A066A056A055066
:104114000B1206500C1207500D1208500E120950C3
:10412400D8B497EF20F099EF20F0A1EF20F004BE6F
:10413400A0EF20F09EEF20F0A1EF20F00E8E0BC038
:1041440001F00CC002F00DC003F00EC004F0120028
:10415400000E126E10BEB3EF20F0B1EF20F0C5EFE9
:1041640020F0101E0F1E0E1E0D1E0C1E0B1E0A1E0E
:10417400096C000E0A220B220C220D220E220F22A1
:104184001022010E126E08BECCEF20F0CAEF20F010
:10419400DEEF20F0081E071E061E051E041E031E69
:1041A400021E016C000E02220322042205220622B2
:1041B40007220822010E121A20EE13F0070EDE6AFF
:1041C400E806FDE209500A100B100C100D100E1039
:1041D4000F101010D8B4F1EF20F0F3EF20F045EFFA
:1041E40021F0010E116E01EF21F0D89009360A3644
:1041F4000B360C360D360E360F361036112A10AE2D
:1042040006EF21F008EF21F0F7EF20F0D8901336F5
:104214001436153616361736183619361A36095026
:10422400015C0A5002580B5003580C5004580D50AE
:1042340005580E5006580F50075810500858D8A06B
:1042440026EF21F028EF21F039EF21F00950015E2B
:104254000A50025A0B50035A0C50045A0D50055A76
:104264000E50065A0F50075A1050085A1380D8900F
:1042740010320F320E320D320C320B320A32093246
:10428400112E08EF21F01250D8B44BEF21F04DEF6E
:1042940021F05DEF21F01A1E191E181E171E161E9E
:1042A400151E141E136C000E14221522162217223A
:1042B400182219221A2213C001F014C002F015C0EA
:1042C40003F016C004F017C005F018C006F019C0BA
:1042D40007F01AC008F0120001C00BF002C00CF085
:1042E40005500610D8A479EF21F07BEF21F07DEF83
:1042F40021F028EF22F00BC0D9FF0CC0DAFF03C075
:10430400DFFF05500B24076E06500C20086EFF0ECD
:104314000724D96EFF0E0820DA6E03C0DFFF0650B3
:1043240007E1030E055CD8B09AEF21F09CEF21F071
:104334009EEF21F028EF22F020EE01F00B50D92659
:104344000C50DA2203C0DFFF20EE02F00B50D92616
:104354000C50DA2203C0DFFF05500B24076E065011
:104364000C20086EFE0E0724D96EFF0E0820DA6EAC
:1043740003C0DFFF05500B24076E06500C20086EA7
:10438400FD0E0724D96EFF0E0820DA6E03C0DFFF8E
:10439400065007E1070E055CD8B0D3EF21F0D5EF46
:1043A40021F0D7EF21F028EF22F020EE03F00B509C
:1043B400D9260C50DA2203C0DFFF05500B24076E08
:1043C40006500C20086EFC0E0724D96EFF0E082040
:1043D400DA6E03C0DFFF065007E1090E055CD8B0B2
:1043E400F6EF21F0F8EF21F0FAEF21F028EF22F0B8
:1043F4000BC007F00CC008F0071E081E074A082A65
:10440400030E0714096E0A6A09500B260A500C227F
:104414000950055E0A50065AFC0E0516FF0E0616D4
:104424001FEF22F00BC0D9FF0CC0DAFF03C0DFFF7F
:104434000506D8A006060B4A0C2A05500610D8A477
:1044440026EF22F028EF22F014EF22F01200000EE3
:10445400126E08BE32EF22F030EF22F044EF22F069
:10446400081E071E061E051E041E031E021E016CE6
:10447400000E022203220422052206220722082219
:10448400010E126E10BE4BEF22F049EF22F05BEFEB
:1044940022F0101E0F1E0E1E0D1E0C1E0B1E0A1ED9
:1044A400096C000E0A220B220C220D220E220F226E
:1044B400102209500A100B100C100D100E100F10C2
:1044C4001010D8B468EF22F06AEF22F0B2EF22F0B5
:1044D400010E116E78EF22F0D89009360A360B36A9
:1044E4000C360D360E360F361036112A10AE7DEF0F
:1044F40022F07FEF22F06EEF22F00950015C0A50A7
:1045040002580B5003580C5004580D5005580E50C7
:1045140006580F50075810500858D8A094EF22F0AE
:1045240096EF22F0A6EF22F00950015E0A50025ADB
:104534000B50035A0C50045A0D50055A0E50065A8B
:104544000F50075A1050085AD89010320F320E32BA
:104554000D320C320B320A320932112E7FEF22F067
:104564001250D8B4B8EF22F0BAEF22F0CAEF22F01A
:10457400081E071E061E051E041E031E021E016CD5
:10458400000E022203220422052206220722082208
:1045940001C001F002C002F003C003F004C004F043
:1045A40005C005F006C006F007C007F008C008F013
:1045B4001200010E096E01500210D8B4E4EF22F08B
:1045C400E6EF22F0F7EF22F001C0D9FF02C0DAFFD4
:1045D400DF30E832E832070B036E070E0364F5EFB1
:1045E40022F0F7EF22F05AEF23F0000E096E7BEF72
:1045F40023F001C0D9FF02C0DAFFDF30E832E8322D
:10460400070B036E010E046E032A0BEF23F0D89000
:104614000436032E09EF23F00450FF0A056E01C08F
:10462400D9FF02C0DAFFDF50070B066E0650020DF9
:104634009A0EF324D96E010EF420DA6EDECF07F061
:10464400DDCF08F007C0D9FF08C0DAFF0550DF1638
:104654007BEF23F001C0D9FF02C0DAFFDF30E8327C
:10466400E832070B036E010E046E032A3CEF23F0BD
:10467400D8900436032E3AEF23F001C0D9FF02C0CC
:10468400DAFFDF50070B056E0550020D9A0EF32476
:10469400D96E010EF420DA6EDECF06F0DDCF07F01E
:1046A40006C0D9FF07C0DAFF0450DF127BEF23F006
:1046B40001C0D9FF02C0DAFFDFBC63EF23F066EF6D
:1046C40023F0010E67EF23F0000E036E046A04501A
:1046D400000AD8B470EF23F0F7EF22F00350000A79
:1046E400D8B4FBEF22F0010AD8B42CEF23F0F7EF93
:1046F40022F009501200486E2A0E4818D8A485EFFB
:1047040023F087EF23F0A3EF23F040C00FF041C064
:1047140010F042C011F043C012F044C013F045C081
:1047240014F046C015F047C016F0CDEC15F00FC0DC
:1047340040F010C041F011C042F012C043F01AEF33
:1047440024F02F0E4818D8A4AAEF23F0ACEF23F0DE
:10475400C8EF23F040C001F041C002F042C003F0B2
:1047640043C004F044C005F045C006F046C007F05D
:1047740047C008F0E2EC17F001C040F002C041F07D
:1047840003C042F004C043F01AEF24F02B0E481883
:10479400D8A4CFEF23F0D1EF23F0EDEF23F040C006
:1047A40028F041C029F042C02AF043C02BF044C095
:1047B4002CF045C02DF046C02EF047C02FF03DEC44
:1047C40011F028C040F029C041F02AC042F02BC0AB
:1047D40043F01AEF24F02D0E4818D8A4F4EF23F078
:1047E400F6EF23F012EF24F040C038F041C039F066
:1047F40042C03AF043C03BF044C03CF045C03DF0F9
:1048040046C03EF047C03FF0CEEC2EF038C040F03A
:1048140039C041F03AC042F03BC043F01AEF24F0F3
:10482400000E406E000E416E000E426E000E436E8E
:104834001200010E0A6E01500210D8B424EF24F0C5
:1048440026EF24F037EF24F001C0D9FF02C0DAFFCD
:10485400DF30E832E832070B046E070E046435EFEC
:1048640024F037EF24F09AEF24F0000E0A6EAFEF35
:1048740024F001C0D9FF02C0DAFFDF30E832E832A9
:10488400070B046E010E056E042A4BEF24F0D8903A
:104894000536042E49EF24F00550FF0A066E01C0C8
:1048A400D9FF02C0DAFFDF50070B076E0750020D75
:1048B400900EF324D96E010EF420DA6EDECF08F0E8
:1048C400DDCF09F008C0D9FF09C0DAFF0650DF16B2
:1048D400AFEF24F001C0D9FF02C0DAFFDF30E832C5
:1048E400E832070B046E010E056E042A7CEF24F0F7
:1048F400D8900536042E7AEF24F001C0D9FF02C007
:10490400DAFFDF50070B066E0650020D900EF324FB
:10491400D96E010EF420DA6EDECF07F0DDCF08F099
:1049240007C0D9FF08C0DAFF0550DF12AFEF24F04B
:104934000350046E056A0550000AD8B4A4EF24F0AD
:1049440037EF24F00450000AD8B43BEF24F0010AF6
:10495400D8B46CEF24F037EF24F00A501200000EA4
:10496400176E13501410D8A4BAEF24F0BCEF24F03F
:10497400C0EF24F0000E186E43EF25F013C00BF0C7
:1049840014C00CF075EC2DF0186E010E13240B6E90
:10499400000E14200C6E75EC2DF0186E000E176EC0
:1049A40017501324156E000E1420166E020E1524D3
:1049B4000B6E000E16200C6E75EC2DF0172A030EEC
:1049C4001764E7EF24F0E9EF24F0D2EF24F0340E7B
:1049D400156EF20EE82EFED7152EFCD713C00FF07D
:1049E40014C010F0380E116ED0EC2CF00D0E156EB4
:1049F400FC0EE82EFED7152EFCD713C00FF014C002
:104A040010F0380E116ED0EC2CF0640EE82EFED7A8
:104A140013C00FF014C010F0380E116ED0EC2CF04F
:104A240013C00FF014C010F0010E116ED0EC2CF076
:104A340013C00FF014C010F0020E116ED0EC2CF065
:104A440013C00FF014C010F0060E116ED0EC2CF051
:104A540013C00FF014C010F00C0E116ED0EC2CF03B
:104A640013C00FF014C010F0280E116ED0EC2CF00F
:104A740013C00FF014C010F0010E116ED0EC2CF026
:104A8400186E1850120001C008F002C009F003C0EB
:104A94000AF004C00BF00506D8A00606052806E1B6
:104AA4000628D8A458EF25F05AEF25F067EF25F033
:104AB400000E026E000E016ED7EF25F0084A092A97
:104AC4000A4A0B2A0506D8A0060608C0F6FF09C044
:104AD400F7FF000EF86E0F0EF76403D00800F550D0
:104AE40005D0F6CFE9FFF7CFEAFFEF500009D8B4BD
:104AF4007EEF25F080EF25F0B9EF25F00AC0F6FF30
:104B04000BC0F7FFF86A0800F5500009D8B48DEF20
:104B140025F08FEF25F0B9EF25F005500610D8B435
:104B240096EF25F098EF25F0B9EF25F00AC0F6FFCF
:104B34000BC0F7FFF86A0800F5CF07F008C0F6FFCE
:104B440009C0F7FF000EF86E0F0EF76403D00800DB
:104B5400F55005D0F6CFE9FFF7CFEAFFEF5007187D
:104B6400D8B4B7EF25F0B9EF25F060EF25F008C011
:104B7400F6FF09C0F7FF000EF86E0F0EF76403D0BE
:104B84000800F55005D0F6CFE9FFF7CFEAFFEF5064
:104B9400076E0AC0F6FF0BC0F7FFF86A0800F5506D
:104BA400075C016E026AD8A002061200000E146EA1
:104BB400000E156E000E136E000E126E0B500C10CC
:104BC400D8B4E7EF25F0E9EF25F0F2EF25F00D502A
:104BD4000E10D8A4F0EF25F0F2EF25F0F6EF25F053
:104BE400000E116E67EF26F0000E146E000E136EA9
:104BF40013500B24016E000E0C20026E000E036E87
:104C04001BEC24F0132A030E13640BEF26F00DEFB4
:104C140026F0FAEF25F014500B24016E000E0C2040
:104C2400026E010E036E1BEC24F0820E0F6EDE0E7C
:104C3400E82EFED70F2EFCD7000E156E15500B2450
:104C44000F6E000E0C20106E040E0F24016E000E69
:104C54001020026E120E036E000E046EF7EC29F0A3
:104C6400116E1204D8A439EF26F03BEF26F055EF6D
:104C740026F01450060D010E0F6E100E106EF35038
:104C84000F26F450102215500F26000E10220FC0CC
:104C9400F6FF10C0F7FFF86A0DC0D9FF0EC0DAFFA7
:104CA4000800F5CFDFFF152A050E15645CEF26F02A
:104CB4005EEF26F020EF26F0142A030E146465EF4D
:104CC40026F067EF26F0F8EF25F0115012000334B8
:104CD40004340A6E0A50D8A472EF26F074EF26F05A
:104CE4007EEF26F0000E016E000E026E000E036EC3
:104CF400000E046EEBEF26F001C005F002C006F0D2
:104D040003C007F004C008F0200E8EEF26F0D89000
:104D14000832073206320532E82E89EF26F00550B4
:104D2400096E038EFF0E0116FF0E0216FF0E031608
:104D3400000E0416960E0A5E0ABEA5EF26F0A3EF37
:104D440026F0BBEF26F00A50800A970FD8B0ADEFDB
:104D540026F0AFEF26F0B1EF26F074EF26F0D890EE
:104D640004320332023201320A3EB1EF26F0D3EFAD
:104D740026F01F0E0A64C1EF26F0C3EF26F0CBEF36
:104D840026F074EF26F0D890013602360336043646
:104D94000A060A50D8A4D1EF26F0D3EF26F0C5EFC7
:104DA40026F00950D8B4D9EF26F0DBEF26F0E3EF74
:104DB40026F0041E031E021E016C000E02220322B2
:104DC400042201C001F002C002F003C003F004C0D9
:104DD40004F01200000E2814306E000E2914316EF7
:104DE400800E2A14326E7F0E2B14336E3050311025
:104DF40032103310D8A401EF27F003EF27F00BEFA4
:104E040027F0000E286E000E296E000E2A6E000E8A
:104E14002B6E000E2C14306E000E2D14316E800E8D
:104E24002E14326E7F0E2F14336E30503110321028
:104E34003310D8A420EF27F022EF27F02AEF27F031
:104E4400000E2C6E000E2D6E000E2E6E000E2F6EB8
:104E54002BAE2FEF27F031EF27F03AEF27F0286C35
:104E6400291ED8B0292A2A1ED8B02A2A800E2B56E9
:104E74002FAE3FEF27F041EF27F04AEF27F02C6CDD
:104E84002D1ED8B02D2A2E1ED8B02E2A800E2F56B5
:104E9400000E281A000E291A000E2A1A800E2B1A48
:104EA400000E2C1A000E2D1A000E2E1A800E2F1A28
:104EB4002C50285C2D5029582E502A582F502B58EE
:104EC400D8B067EF27F069EF27F06CEF27F0D890A0
:104ED4006DEF27F0D880120004C10BF005C10CF06F
:104EE40006C10DF007C10EF001C00BF002C00CF0BA
:104EF40003C00DF004C00EF00BC005F00CC006F0AA
:104F04000DC007F00EC008F0180E8EEF27F0D890F1
:104F14000832073206320532E82E89EF27F00550B1
:104F2400096E0A6A09500A10D8A49BEF27F09DEF76
:104F340027F0BDEF27F0D8900B34056E0C34066EC5
:104F44000D34076E0E34086E055006100710081055
:104F5400D8A4AFEF27F0B1EF27F0B7EF27F0000E9A
:104F6400026E020E016EECEF27F0000E026E030ECD
:104F7400016EECEF27F009280A10D8A4C4EF27F03B
:104F8400C6EF27F0E8EF27F00BC005F00CC006F0E1
:104F94000DC007F00EC008F0090ED890053606368D
:104FA40007360836E82ECFEF27F005500610071015
:104FB4000810D8B4E0EF27F0E3EF27F0010EE4EF98
:104FC40027F0000E016E026AECEF27F0000E026E6D
:104FD400040E016E120020EE11F0070EDE6AE806E0
:104FE400FDE209500A100B100C100D100E100F10DA
:104FF4001010D8B400EF28F002EF28F054EF28F096
:10500400010E196E10EF28F0D89009360A360B36C7
:105014000C360D360E360F361036192A10AE15EF33
:1050240028F017EF28F006EF28F0D8901136123642
:105034001336143615361636173618360950015CF1
:105044000A5002580B5003580C5004580D50055880
:105054000E5006580F50075810500858D8A035EF76
:1050640028F037EF28F048EF28F00950015E0A5085
:10507400025A0B50035A0C50045A0D50055A0E5044
:10508400065A0F50075A1050085A1180D8901032FF
:105094000F320E320D320C320B320A320932192E13
:1050A40017EF28F011C001F012C002F013C003F092
:1050B40014C004F015C005F016C006F017C007F0C0
:1050C40018C008F0120009500A100B100C100D1033
:1050D4000E100F101010D8B472EF28F074EF28F0EF
:1050E400BCEF28F0010E116E82EF28F0D89009363B
:1050F4000A360B360C360D360E360F361036112A9C
:1051040010AE87EF28F089EF28F078EF28F00950E7
:10511400015C0A5002580B5003580C5004580D50AF
:1051240005580E5006580F50075810500858D8A06C
:105134009EEF28F0A0EF28F0B0EF28F00950015EB0
:105144000A50025A0B50035A0C50045A0D50055A77
:105154000E50065A0F50075A1050085AD890103261
:105164000F320E320D320C320B320A320932112E4A
:1051740089EF28F001C001F002C002F003C003F07F
:1051840004C004F005C005F006C006F007C007F02F
:1051940008C008F0120003500410D8B4D4EF28F06B
:1051A400D6EF28F0DFEF28F003500410D8A4DDEF89
:1051B40028F0DFEF28F0E4EF28F0015058EC30F04D
:1051C40031EF29F020EE09F00350D9260450DA22F9
:1051D400DE50DE10D8B4F1EF28F0F3EF28F00EEF34
:1051E40029F020EE09F00350D9260450DA2210EEFB
:1051F40003F00350E1260450E222DE50E65CE65060
:10520400800A096EDE50800A0958D8B00CEF29F0E4
:105214000EEF29F031EF29F020EE03F00350D926E8
:105224000450DA22DECF05F0DDCF06F003C0D9FF4B
:1052340004C0DAFFDECF07F0DDCF08F00550072405
:10524400D96E06500820DA6E01C0DFFF20EE03F0AD
:105254000350D9260450DA22DE2A000EDD22120081
:105264000001EFA138EF29F03AEF29F044EF29F0DB
:1052740013C00AF014C00BF011C00CF012C00DF0F2
:10528400F1EC2EF016BE49EF29F04BEF29F051EF67
:1052940029F015C01AF016C01BF055EF29F0000EC6
:1052A4001B6E000E1A6E000E196E000E186E67EF5C
:1052B40029F0000E026E200E016E11C003F012C020
:1052C40004F0CDEC28F0184A192A1A50185C195029
:1052D400800A176E1B50800A1758D8A074EF29F063
:1052E40076EF29F05BEF29F00001EFB17CEF29F0B4
:1052F4007EEF29F088EF29F013C00AF014C00BF0F8
:1053040011C00CF012C00DF0F1EC2EF013C001F03E
:1053140014C002F0E5EC2FF01A500124116E1B505A
:105324000220126E1200000E066E04BE9EEF29F0DB
:105334009CEF29F0A4EF29F0036C041ED8B0042AD2
:10534400010E066E02BEABEF29F0A9EF29F0B1EF12
:1053540029F0016C021ED8B0022A010E061A000EB2
:10536400086E000E076E03500410D8B4BCEF29F089
:10537400BEEF29F0E6EF29F0010E056EC6EF29F025
:10538400D89003360436052A04AECBEF29F0CDEFCE
:1053940029F0C2EF29F0D890073608360350015C93
:1053A40004500258D8A0D9EF29F0DBEF29F0E0EF40
:1053B40029F00350015E0450025A0780D890043249
:1053C4000332052ECDEF29F00650D8B4ECEF29F0C6
:1053D400EEEF29F0F2EF29F0076C081ED8B0082A86
:1053E40007C001F008C002F01200010E0A6E01505D
:1053F4000210D8B400EF2AF002EF2AF01CEF2AF0D2
:1054040003500410D8B409EF2AF00BEF2AF01CEF74
:105414002AF001C0D9FF02C0DAFFDF30E832E832F7
:10542400070B056E070E05641AEF2AF01CEF2AF02D
:1054340020EF2AF0000E0A6E51EF2AF001C0D9FFC6
:1054440002C0DAFFDF30E832E832070B056E01C034
:10545400D9FF02C0DAFFDF50070B066E0650020DBB
:10546400860EF324D96E010EF420DA6EDECF07F037
:10547400DDCF08F007C0D9FF08C0DAFFDF50096E9E
:10548400052A47EF2AF0D8900932052E45EF2AF075
:105494000950010B03C0D9FF04C0DAFFDF6E0A50C4
:1054A4001200000E066E02BE5CEF2AF05AEF2AF0DC
:1054B40062EF2AF0016C021ED8B0022A010E066EB9
:1054C40004BE69EF2AF067EF2AF06DEF2AF0036C4F
:1054D400041ED8B0042A03500410D8B474EF2AF080
:1054E40076EF2AF09AEF2AF0010E056E7EEF2AF08D
:1054F400D89003360436052A04AE83EF2AF085EFEC
:105504002AF07AEF2AF00350015C04500258D8A024
:105514008EEF2AF090EF2AF094EF2AF00350015E08
:105524000450025AD89004320332052E85EF2AF033
:105534000650D8B4A0EF2AF0A2EF2AF0A6EF2AF082
:10554400016C021ED8B0022A01C001F002C002F0B0
:105554001200000E0114096E000E02140A6E800E71
:1055640003140B6E7F0E04140C6E09500A100B10FA
:105574000C10D8A4C0EF2AF0C2EF2AF0CAEF2AF028
:10558400000E016E000E026E000E036E000E046E1D
:10559400000E0514096E000E06140A6E800E071420
:1055A4000B6E7F0E08140C6E09500A100B100C10B1
:1055B400D8A4DFEF2AF0E1EF2AF0E9EF2AF0000E99
:1055C400056E000E066E000E076E000E086E055086
:1055D40001180FE1065002180CE10750031809E105
:1055E40008500418D8B4F9EF2AF0FBEF2AF0FEEFC4
:1055F4002AF0D890FFEF2AF0D8801200010E196E1D
:10560400160635EF2BF013C00FF014C010F016502F
:10561400800F116ED0EC2CF0196E52EF2BF013C0EA
:105624000FF014C010F01650C00F116ED0EC2CF017
:10563400196E52EF2BF013C00FF014C010F0165077
:10564400940F116ED0EC2CF0196E52EF2BF013C0A6
:105654000FF014C010F01650D40F116ED0EC2CF0D3
:10566400196E52EF2BF01550176E186A1850000A75
:10567400D8B43FEF2BF052EF2BF01750010AD8B4F7
:1056840005EF2BF0030AD8B411EF2BF0010AD8B4BC
:105694001DEF2BF0070AD8B429EF2BF052EF2BF0B3
:1056A400195012001A501B10D8A45BEF2BF05DEFB9
:1056B4002BF061EF2BF0000E206EA2EF2BF01AC03E
:1056C40013F01BC014F01CC015F01DC016F000EC44
:1056D4002BF0206E89EF2BF01AC00FF01BC010F0D6
:1056E4001EC0F6FF1FC0F7FF000EF86E0F0EF76422
:1056F40003D00800F55005D0F6CFE9FFF7CFEAFF55
:10570400EF50116E97EC2CF0206E1E4A1F2A1EC01B
:10571400F6FF1FC0F7FF000EF86E0F0EF76403D0FC
:105724000800F55005D0F6CFE9FFF7CFEAFFEF50B8
:105734000009D8A4A0EF2BF0A2EF2BF06EEF2BF012
:1057440020501200000E146E000E156E0F50101033
:10575400D8A4AFEF2BF0B1EF2BF0B5EF2BF0000E88
:10576400136EE2EF2BF0000E146E14500F240B6E28
:10577400000E10200C6E75EC2DF0142A030E146428
:10578400C6EF2BF0C8EF2BF0B7EF2BF0000E156E21
:1057940015500F24116E000E1020126E040E1124E9
:1057A400016E000E1220026EDBEC22F0136E152A3D
:1057B400050E1564E0EF2BF0E2EF2BF0CAEF2BF0AF
:1057C400135012000F501010D8A4EBEF2BF0EDEF94
:1057D4002BF0F1EF2BF0000E126E1FEF2CF0FBC03C
:1057E40013F00FC0D9FF10C0DAFFDF500F0B116E9A
:1057F40013501118F80B1118136E0FC0D9FF10C0F5
:10580400DAFFDF38070B116E1146114611461350AB
:105814001118C70B1118136E139C0FC0D9FF10C0B9
:10582400DAFFDFAE02D0138E01D0139E130E0B6E7F
:10583400000E0C6E75EC2DF0126E125012000B500F
:105844000C10D8A428EF2CF02AEF2CF02CEF2CF01D
:105854005BEF2CF0FAC00EF00BC0D9FF0CC0DAFFDE
:10586400DF500F0B0D6E0E500D18F80B0D180E6E49
:105874000BC0D9FF0CC0DAFFDF38070B0D6E0D46E5
:105884000D460D460E500D18C70B0D180E6E0E9CCE
:105894000BC0D9FF0CC0DAFFDFAE02D00E8E01D0F0
:1058A4000E9E0E0E016E000E026E010E036E1BECB8
:1058B40024F012000B500C10D8A463EF2CF065EF09
:1058C4002CF067EF2CF096EF2CF0F9C00EF00BC023
:1058D400D9FF0CC0DAFFDF500F0B0D6E0E500D1800
:1058E400F80B0D180E6E0BC0D9FF0CC0DAFFDF38B1
:1058F400070B0D6E0D460D460D460E500D18C70BC9
:105904000D180E6E0E9C0BC0D9FF0CC0DAFFDFAE73
:1059140002D00E8E01D00E9E0E0E016E000E026E8F
:10592400000E036E1BEC24F012000F501010D8A4CC
:105934009EEF2CF0A0EF2CF0A4EF2CF0000E126ED2
:10594400CEEF2CF00FC001F010C002F0010E036E78
:105954001BEC24F0126E0FC00BF010C00CF01138C9
:105964000F0B0D6EABEC2DF0126E0FC00BF010C0D0
:105974000CF055EC2FF0126E0FC00BF010C00CF0B1
:1059840011C00DF0ABEC2DF0126E0FC00BF010C077
:105994000CF055EC2FF0126E125012000F50101034
:1059A400D8A4D7EF2CF0D9EF2CF0DDEF2CF0000EBB
:1059B400126E07EF2DF00FC001F010C002F0000EC0
:1059C400036E1BEC24F0126E0FC00BF010C00CF031
:1059D40011380F0B0D6EABEC2DF0126E0FC00BF0E7
:1059E40010C00CF055EC2FF0126E0FC00BF010C06D
:1059F4000CF011C00DF0ABEC2DF0126E0FC00BF0DB
:105A040010C00CF055EC2FF0126E12501200AEC004
:105A14007EF0AFC07FF0000E01010D6F000E0C6F21
:105A24002BEF2DF0ACC080F0ADC081F07E0E0001F4
:105A3400826F000E836FB0C084F0B1C085F01AECA1
:105A44000EF00001805101010C2700018151010178
:105A54000D237EC0F6FF7FC0F7FFF86A0800F550FB
:105A64000009D8A438EF2DF03AEF2DF014EF2DF003
:105A74000CC1ACF00DC1ADF01200036E2B0E031877
:105A8400D8B447EF2DF049EF2DF052EF2DF02D0E45
:105A94000318D8A450EF2DF052EF2DF058EF2DF04D
:105AA400000E026E010E016E74EF2DF02A0E031823
:105AB400D8B45FEF2DF061EF2DF06AEF2DF02F0ECB
:105AC4000318D8A468EF2DF06AEF2DF070EF2DF0D5
:105AD400000E026E020E016E74EF2DF0000E026EC7
:105AE400000E016E12000B500C10D8B47CEF2DF098
:105AF4007EEF2DF08FEF2DF00BC0D9FF0CC0DAFF35
:105B0400DF30E832E832070B0D6E070E0D648DEFBF
:105B14002DF08FEF2DF093EF2DF0000E0E6EA9EF08
:105B24002DF00BC001F00CC002F0DBEC22F00E6E85
:105B34000BC001F00CC002F00BC0D9FF0CC0DAFF9F
:105B4400000EDFBE010E036E1BEC24F00E6E0E5031
:105B54001200020E0B24016E000E0C20026E0D507A
:105B6400010B036E1BEC24F0030E0B24016E000EDC
:105B74000C20026ED8900D30010B036E1BEC24F048
:105B8400040E0B24016E000E0C20026E0D40E84240
:105B94003F0B010B036E1BEC24F0050E0B24016E6E
:105BA400000E0C20026E0D38E8461F0B010B036E2D
:105BB4001BEC24F00E6E0E50120003C007F004C05C
:105BC40008F001C009F002C00AF00750056E085041
:105BD400066E074A082A05C0F6FF06C0F7FF000E46
:105BE400F86E09C0D9FF0AC0DAFF094A0A2A0F0E63
:105BF400F76403D00800F55005D0F6CFE9FFF7CFDE
:105C0400EAFFEF50DF6EDF50D8A40BEF2EF00DEF5C
:105C14002EF0E7EF2DF01200E60EF66E5E0EF76E34
:105C2400000EF86E01EE86F010EE3BF00900F5CFA1
:105C3400EEFFE550E150FAE1B20EF66E600EF76E3B
:105C4400000EF86E0900F5CFFFF002EE00F0C80E6A
:105C5400EE6AE806FDE101EE00F0860EEE6AE80663
:105C6400FDE100EEEBF0140EEE6AE806FDE1000142
:105C74009DEF13F0B60E0001BA6F000EBB6FB2C0F9
:105C8400BCF0B3C0BDF0000EC06F000EBF6F000EBD
:105C9400C66F000EC56FBC0EAC6F000EAD6FB4C006
:105CA400AEF0B5C0AFF0BA0EB06F000EB16F09EC34
:105CB4002DF00001BF51B225D96EC051B321DA6E67
:105CC400000EDF6E1200BF0E096EFF0E0A6E07C0D3
:105CD4000BF008C00CF009500B260A500C220C5093
:105CE40007E11A0E0B5CD8B07AEF2EF07CEF2EF0A1
:105CF40083EF2EF0200E0710076E0850086E87EF12
:105D04002EF007C007F008C008F012001A501B104C
:105D1400D8A48FEF2EF091EF2EF095EF2EF0000E19
:105D24001F6EA9EF2EF01AC013F01BC014F01CC094
:105D340015F01DC016F000EC2BF01F6E1AC00FF00A
:105D44001BC010F01EC011F097EC2CF01F6E1F50FA
:105D5400120020EE50F00150D9260250DA22DFCF93
:105D640005F0010EDE5EDFCF06F0000EDD5AD8909E
:105D740005360636D8900536063605500124D96E08
:105D840006500220DA6EDECF01F0DECF02F0DECF65
:105D940003F0DECF04F01200000E3C1A000E3D1A90
:105DA400000E3E1A800E3F1A38C028F039C029F080
:105DB4003AC02AF03BC02BF03CC02CF03DC02DF083
:105DC4003EC02EF03FC02FF03DEC11F028C038F05B
:105DD40029C039F02AC03AF02BC03BF01200000E63
:105DE400106E000E0F6E02EF2FF00EC001F0026A6B
:105DF4000CC003F00DC004F0CDEC28F00F4A102ABB
:105E04000F500A24D96E10500B20DA6EDF500E6E3C
:105E14000E50D8A410EF2FF012EF2FF0F7EF2EF062
:105E2400120020EE50F04950D9264A50DA22DE2AD8
:105E3400000EDD22DECF4FF0DDCF50F0D8904F368C
:105E44005036D8904F3650364F504924D96E505062
:105E54004A20DA6E4BC0DEFF4CC0DEFF4DC0DEFFD1
:105E64004EC0DEFF120014BE42EF2FF0145006E1C4
:105E74001304D8B040EF2FF042EF2FF050EF2FF083
:105E840013C015F014C016F0151E161E154A162A56
:105E940015C013F016C014F054EF2FF013C013F014
:105EA40014C014F01200010E0B24016E000E0C201D
:105EB400026E010E036E1BEC24F00D0E0D6EFC0E33
:105EC400E82EFED70D2EFCD7010E0B24016E000E1A
:105ED4000C20026E000E036E1BEC24F00E6E0E50AE
:105EE4001200800F810F820F830F840F890F8A0F96
:105EF4008B0F8C0F8D0F920F930F940F950F960F9E
:105F04002F452A2D2B3D44430101010101020A12B0
:0D5F14001A626A727A434B131B232B333B36
:105F2200BF0E036EFF0E046E01C005F002C006F044
:105F3200035005260450062206500AE11A0E055C9B
:105F4200D8A0A6EF2FF0A9EF2FF0010EAAEF2FF0A5
:105F5200000E016E026A12000150021003100410BA
:105F6200D8B4B6EF2FF0B8EF2FF0C0EF2FF0000E3D
:105F7200011A000E021A000E031A800E041A01C042
:105F820001F002C002F003C003F004C004F01200EA
:105F9200036E2F0E0364D0EF2FF0D2EF2FF0E0EF5D
:105FA2002FF03A0E0360D8EF2FF0DAEF2FF0E0EF88
:105FB2002FF0000E026E010E016EE4EF2FF0000EC4
:105FC200026E000E016E120001C003F002C004F066
:105FD200EDEF2FF0014A022A01C0D9FF02C0DAFF19
:105FE200DF50D8A4F7EF2FF0F9EF2FF0EBEF2FF0FF
:105FF2000350015C016E04500258026E120020EE42
:1060020064F00150D9260250DA22DE2A000EDD2287
:10601200DECF04F0DDCF05F004500124D96E055027
:106022000220DA6E03C0DFFF120020EE64F001509E
:10603200D9260250DA22DFCF03F0010EDE5EDFCF77
:1060420004F0000EDD5A03500124D96E04500220E0
:10605200DA6EDF501200B10E0F6E010E106EA4EC5C
:106062002BF0FE0E0F6E000E106EE4EC2BF0BB0E4A
:10607200136E010E146EB1EC24F0120020EE64F0E7
:106082000150D9260250DA22FF0EDE6EFF0EDD6EBF
:10609200120020EE50F00150D9260250DA22FF0EF3
:1060A200DE6EFF0EDD6E12002CEC30F012001200DC
:0160B20001EC
:020000040020DA
:08000000FFFFFFFFFFFFFFFF00
:020000040030CA
:0E000000FF02091EFF8181FF0FC00FE00F40BD
:00000001FF
