:040000007FEF1DF081
:1010000000413738392F45423435362A464331328C
:10101000332D4644302E3D2B4700000000DCCFD15D
:10102000350000000000C0153F6042A20D70A5EC25
:10103000363BAAB83F4F38763F3CAA38338CBEBF08
:10104000350072313F1872313F4CBB31330EEADD4F
:10105000B555B38A38610B36BBABAA2A3E42F15371
:101060003E55326C3E05A38B3EABAAAA3EB76DDB64
:101070003E9A99193F6042A20DCAF2497100008060
:101080004B0000803F0000C03F00AAB83FC623F6D7
:10109000B80040763F434153494F00256C75006CC2
:0910A00064006C69002569000080
:1010AA001BEC20F0C70E0B6E010E0C6E7F0E0D6E40
:1010BA00000E0E6EACEC16F0410E7F18D8A468EF45
:1010CA0008F06AEF08F0A0EF08F00001EF51D8A489
:1010DA0071EF08F073EF08F0A0EF08F0F90E0B6E4D
:1010EA00000E0C6E97EC1CF0230E7F6ED10E1A6E5A
:1010FA00010E1B6E010E1C6E010E1D6E950E1E6EEC
:10110A00100E1F6E8BEC1BF0060E7C6E130E7B6EA0
:10111A00AE0EE82EFED77B2EFCD77C2EFAD7D10E48
:10112A000F6E010E106E010E116E46EC1DF00001DD
:10113A00EF2BEFEF08F0410E7F18D8A4A7EF08F0C5
:10114A00A9EF08F0EFEF08F00001EF05D8A4B0EF1F
:10115A0008F0B2EF08F0EFEF08F0000EEF6FF90EAB
:10116A000B6E000E0C6ED2EC1CF0D10E0F6E010E3F
:10117A00106E010E116E46EC1DF0000E016E020E8D
:10118A00026E000E046E000E036E000E066E640EF2
:10119A00056EDBEC12F0260E016E010E026E000ED9
:1011AA00046E000E036E000E066E640E056EDBEC16
:1011BA0012F0000E0001ED6F000E0101046F000E27
:1011CA00056F000E066F000E076F010E0001FB6F20
:1011DA00000EEC6F000E7E6E000E7D6EBF0E7D243B
:1011EA00D96E010E7E20DA6E7F50DE18D8A400EF89
:1011FA0009F002EF09F007EF09F0010E0001EE6FA6
:10120A0017EF09F07D4A7E2A7EBE15EF09F07E505F
:10121A0009E1070E7D5CD8A015EF09F017EF09F078
:10122A00F3EF08F00001EE05D8B41EEF09F020EF45
:10123A0009F087EF09F0EF05D8A426EF09F028EFA7
:10124A0009F087EF09F0230E7F18D8B42FEF09F0C1
:10125A0031EF09F087EF09F0EC05D8A437EF09F070
:10126A0039EF09F06EEF09F0D10E0F6E010E106E14
:10127A00010E116E46EC1DF0000E016E020E026E9A
:10128A00000E046E000E036E000E066E640E056EEE
:10129A00DBEC12F0260E016E010E026E000E046ED9
:1012AA00000E036E000E066E640E056EDBEC12F085
:1012BA00000E0001ED6F000E0101046F000E056FB4
:1012CA00000E066F000E076F010E0001FB6F000E85
:1012DA00EC6F000EED25D96EDA6A020EDA227FC0B3
:1012EA00DFFFD10E1A6E010E1B6E010E1C6EFBC0C3
:1012FA001DF07FC01EF0E0EC1EF00001ED2BFB2B71
:10130A0071EF0AF0EE05D8A48DEF09F08FEF09F01E
:10131A0071EF0AF0EF05D8A495EF09F097EF09F0FD
:10132A0071EF0AF0D8EF09F02A0EEA6F000EED25E8
:10133A00D96EDA6A020EDA222A0EDF6EED2BF9EF87
:10134A0009F02F0EEA6F000EED25D96EDA6A020E49
:10135A00DA222F0EDF6EA3EF09F02D0EEA6F000ED0
:10136A00ED25D96EDA6A020EDA222D0EDF6EA3EFB0
:10137A0009F02B0EEA6F000EED25D96EDA6A020E1D
:10138A00DA222B0EDF6EA3EF09F03D0EEA6F010E93
:10139A00EC6F000EED25D96EDA6A020EDA22000E23
:1013AA00DF6EF9EF09F07F507B6E7C6A7C50000A91
:1013BA00D8B4E2EF09F0F9EF09F07B502A0AD8B461
:1013CA00B2EF09F0010AD8B4BEEF09F0040AD8B4A2
:1013DA0099EF09F0120AD8B4CAEF09F0780AD8B41A
:1013EA00A6EF09F0F9EF09F0D10E1A6E010E1B6E85
:1013FA00010E1C6EFBC01DF0EAC01EF0E0EC1EF0F0
:10140A003D0E0001EA19D8A40DEF0AF00FEF0AF019
:10141A0066EF0AF0000E0E6E020E0F6E260E106EAA
:10142A00010E116E6FEC0CF0260E1A6E010E1B6E79
:10143A0058EC10F01AC008F11BC009F11CC00AF1DF
:10144A001DC00BF108C174F009C175F00AC176F02C
:10145A000BC177F0960E786E010E796E86EC1EF04F
:10146A00D10E1A6E010E1B6E040E1C6E960E016EC4
:10147A00010E026EDFEC1FF0015014081D6E960E6D
:10148A001E6E010E1F6E8BEC1BF0000E016E020E1B
:10149A00026E000E046E000E036E000E066E640EDF
:1014AA00056EDBEC12F0260E016E010E026E000EC6
:1014BA00046E000E036E000E066E140E056EDBEC53
:1014CA0012F00001FB2B000E0101046F000E056FE4
:1014DA00000E066F000E076F000E0001EE6F230E5E
:1014EA007F6E57EF08F000EF00F042C0D9FF43C00B
:1014FA00DAFFDECFF6FFDDCFF7FFF86A0800F55016
:10150A00250AD8A48BEF0AF08DEF0AF052EF0CF0FF
:10151A0042C0D9FF43C0DAFFDE2A000EDD22000EE8
:10152A000001E56F000EE46FE4C0E8F0E5C0E9F001
:10153A00E669E76942C0D9FF43C0DAFFDECFF6FFAA
:10154A00DDCFF7FFF86A0800F550640AD8B4B0EFA7
:10155A000AF0B2EF0AF0C5EF0AF042C0D9FF43C061
:10156A00DAFFDECFF6FFDDCFF7FFF86A0800F550A5
:10157A00690AD8A4C3EF0AF0C5EF0AF005EF0BF029
:10158A0042C0D9FF43C0DAFFDE2A000EDD2244C082
:10159A00D9FF45C0DAFFDFCF46F0020EDE26DFCFE5
:1015AA0047F0000EDD2246C0D9FF47C0DAFFDECF82
:1015BA0054F0DDCF55F0000E55BEFF0E566E576E35
:1015CA00586E596E5A6E5B6E40C01CF041C01DF0D9
:1015DA0054C01EF055C01FF056C020F057C021F06D
:1015EA0058C022F059C023F05AC024F05BC025F03D
:1015FA00E4EC0DF01CC040F01DC041F06EEF0CF0A1
:10160A0042C0D9FF43C0DAFFDECF01F0DDCF02F0DE
:10161A009F0E036E100E046E000E066E020E056E0D
:10162A003DEC18F001500210D8B41EEF0BF020EF79
:10163A000BF03BEF0BF042C0D9FF43C0DAFFDECF1D
:10164A0001F0DDCF02F0A20E036E100E046E000E42
:10165A00066E020E056E3DEC18F001500210D8A479
:10166A0039EF0BF03BEF0BF07EEF0BF0020E42C0AE
:10167A00D9FF43C0DAFFDE26000EDD2244C0D9FFBF
:10168A0045C0DAFFDFCF46F0040EDE26DFCF47F093
:10169A00000EDD2246C0D9FF47C0DAFFDECF48F090
:1016AA00DECF49F0DECF4AF0DECF4BF048C04CF037
:1016BA0049C04DF04AC04EF04BC04FF0506A4FBE81
:1016CA00506850C051F050C052F050C053F04CC056
:1016DA0054F04DC055F04EC056F04FC057F050C0B0
:1016EA0058F051C059F052C05AF053C05BF0E9EFBC
:1016FA000AF042C0D9FF43C0DAFFDECFF6FFDDCFE2
:10170A00F7FFF86A0800F550750AD8A48FEF0BF0B6
:10171A0091EF0BF0D2EF0BF042C0D9FF43C0DAFFD2
:10172A00DE2A000EDD2244C0D9FF45C0DAFFDFCF32
:10173A0046F0020EDE26DFCF47F0000EDD2246C05D
:10174A00D9FF47C0DAFFDECF48F0DDCF49F048C005
:10175A005CF049C05DF05E6A5F6A606A616A626AEB
:10176A00636A40C01CF041C01DF05CC01EF05DC041
:10177A001FF05EC020F05FC021F060C022F061C09F
:10178A0023F062C024F063C025F056EC0FF01CC0B1
:10179A0040F01DC041F06EEF0CF042C0D9FF43C0CB
:1017AA00DAFFDECF01F0DDCF02F09C0E036E100EE1
:1017BA00046E000E066E020E056E3DEC18F0015026
:1017CA000210D8A4EBEF0BF0EDEF0BF01BEF0CF0CF
:1017DA00020E42C0D9FF43C0DAFFDE26000EDD2228
:1017EA0044C0D9FF45C0DAFFDFCF46F0040EDE263B
:1017FA00DFCF47F0000EDD2246C0D9FF47C0DAFF2F
:10180A00DECF48F0DECF49F0DECF4AF0DECF4BF034
:10181A0048505C6E49505D6E4A505E6E4B505F6E2A
:10182A00606A616A626A636AB6EF0BF042C0D9FF06
:10183A0043C0DAFFDECFF6FFDDCFF7FFF86A080014
:10184A00F550250AD8A42CEF0CF02EEF0CF045EF3A
:10185A000CF042C0D9FF43C0DAFFDE2A000EDD22B7
:10186A00000E026E250E016E40C003F041C004F066
:10187A001AEC19F0000E416E010E406E6EEF0CF07C
:10188A0042C0D9FF43C0DAFFDE2A000EDD22000E75
:10189A00416E000E406E6EEF0CF042C0D9FF43C09D
:1018AA00DAFFDECFF6FFDDCFF7FFF86A0800F55062
:1018BA00016E026A40C003F041C004F01AEC19F04C
:1018CA0042C0D9FF43C0DAFFDE2A000EDD223FEF15
:1018DA000CF01200200E016E000E026E0DEC20F0CC
:1018EA00000E176E000E186E000E196E000E1A6E9C
:1018FA00000E1D6E000E1C6E000E1F6E000E1E6E78
:10190A009DEF0DF01C500E24D96E1D500F20DA6E7B
:10191A00DF501B6E200E1B18D8A496EF0CF098EF20
:10192A000CF09CEF0CF01C4A1D2A9DEF0DF01B5089
:10193A00A8EC1FF001500210D8A4A6EF0CF0A8EFF3
:10194A000CF0E4EF0CF02E0E1B18D8A4AFEF0CF03D
:10195A00B1EF0CF057EF0DF0E4EF0CF0D00E126E71
:10196A00FF0E136E1C500E24D96E1D500F20DA6E16
:10197A00DF50146E156A125014261350152217C020
:10198A0001F018C002F019C003F01AC004F00A0EE0
:10199A00056E000E066E000E076E000E086EEBEC6A
:1019AA001DF014500124176E15500220186E000EF7
:1019BA000320196E000E04201A6E1C4A1D2A1C50A0
:1019CA000E24D96E1D500F20DA6EDF50A8EC1FF0DE
:1019DA0001500210D8A4F4EF0CF0F6EF0CF0B3EFBC
:1019EA000CF01C500E24D96E1D500F20DA6E2E0EEC
:1019FA00DE18D8B403EF0DF005EF0DF0B3EF0CF0DD
:101A0A00D8901E34D96E1F34DA6ED890D936DA36A9
:101A1A001050D9261150DA2217C0DEFF18C0DEFF97
:101A2A0019C0DEFF1AC0DEFF1E4A1F2A000E176EFB
:101A3A00000E186E000E196E000E1A6ED8901E3423
:101A4A00D96E1F34DA6ED890D936DA361050D926C4
:101A5A001150DA22FB0EDE6EFF0EDE6EFF0EDE6E18
:101A6A00FF0EDD6E1E4A1F2A9DEF0DF0200E016E3D
:101A7A00000E026E03EC1FF0D8901E34D96E1F348C
:101A8A00DA6ED890D936DA361050D9261150DA22C1
:101A9A0001C0DEFF02C0DEFF03C0DEFF04C0DEFFBE
:101AAA001E4A1F2A702808E17128D8B45FEF0DF08A
:101ABA0061EF0DF08AEF0DF0200E126E000E136E1C
:101ACA00D8907034D96E7134DA6ED890D936DA3645
:101ADA001250D9261350DA22DF501BEC1CF001C039
:101AEA0014F002C015F01B501BEC1CF00150145CE2
:101AFA001550800A166E0250800A1658D8B088EF20
:101B0A000DF08AEF0DF03BEF0DF0200E066E000E81
:101B1A00076E1B50E7EC1AF001C008F002C009F08A
:101B2A0003C00AF004C00BF026EC1FF098EF0CF08B
:101B3A001C500E24D96E1D500F20DA6EDF50D8A427
:101B4A00A9EF0DF0ABEF0DF087EF0CF0C9EF0DF038
:101B5A00200E016E000E026E03EC1FF0D8901E34A8
:101B6A00D96E1F34DA6ED890D936DA361050D926A3
:101B7A001150DA2201C0DEFF02C0DEFF03C0DEFF21
:101B8A0004C0DEFF1E4A1F2A702806E17128D8A465
:101B9A00D1EF0DF0D3EF0DF0ADEF0DF0D8901E346C
:101BAA00D96E1F34DA6ED890D936DA361050D92663
:101BBA001150DA22DE6ADE6ADE6ADD6A12001EC0AF
:101BCA0036F01FC037F020C038F021C039F022C0EB
:101BDA003AF023C03BF024C03CF025C03DF03DBEA6
:101BEA00F9EF0DF0FCEF0DF0010EFDEF0DF0000E18
:101BFA00346E356A34503510D8B406EF0EF008EF5B
:101C0A000EF018EF0EF03D1E3C1E3B1E3A1E391E0A
:101C1A00381E371E366C000E3722382239223A22F5
:101C2A003B223C223D220001E7BF1EEF0EF020EFCF
:101C3A000EF021EF0EF0E893E7BF2EEF0EF0E7511A
:101C4A0006E1E605D8B02CEF0EF02EEF0EF034EFD9
:101C5A000EF0000E316E010E306E38EF0EF0E6C057
:101C6A0030F0E7C031F0E4C032F0E5C033F0345070
:101C7A003510D8A443EF0EF045EF0EF04CEF0EF0FE
:101C8A00E8A54AEF0EF04CEF0EF04FEF0EF03206D9
:101C9A00D8A03306000E3F6E1F0E3E6E000E0101E5
:101CAA00956FD4EF0EF03E06D8A03F06760E3E247E
:101CBA00D96E010E3F20DA6E36C001F037C002F04D
:101CCA0038C003F039C004F03AC005F03BC006F052
:101CDA003CC007F03DC008F00A0E096E000E0A6EFD
:101CEA00000E0B6E000E0C6E000E0D6E000E0E6EC8
:101CFA00000E0F6E000E106E96EC13F001C026F067
:101D0A0002C027F003C028F004C029F005C02AF059
:101D1A0006C02BF007C02CF008C02DF026C013F027
:101D2A0028C014F06AEC1FF01350300FDF6E300633
:101D3A00D8A031063206D8A0330636C001F037C023
:101D4A0002F038C003F039C004F03AC005F03BC0D5
:101D5A0006F03CC007F03DC008F00A0E096E000EFE
:101D6A000A6E000E0B6E000E0C6E000E0D6E000E4B
:101D7A000E6E000E0F6E000E106E17EC12F001C000
:101D8A0036F002C037F003C038F004C039F005C09D
:101D9A003AF006C03BF007C03CF008C03DF03FBE39
:101DAA00DFEF0EF03F5008E13E04D8A0DFEF0EF05F
:101DBA00E1EF0EF012EF0FF03650371038103910ED
:101DCA003A103B103C103D10D8A4EEEF0EF0F0EFA5
:101DDA000EF058EF0EF031BEFDEF0EF0315006E175
:101DEA003004D8B0FBEF0EF0FDEF0EF058EF0EF016
:101DFA0033BE08EF0FF0335008E13204D8A008EFE1
:101E0A000FF00AEF0FF012EF0FF00001E8B310EF36
:101E1A000FF012EF0FF058EF0EF034503510D8A42F
:101E2A0019EF0FF01BEF0FF023EF0FF00001E8A5F9
:101E3A0021EF0FF023EF0FF041EF0FF03E06D8A08D
:101E4A003F0634503510D8A42DEF0FF02FEF0FF0C6
:101E5A0035EF0FF0000E2F6E2B0E2E6E39EF0FF0AE
:101E6A00000E2F6E2D0E2E6E760E3E24D96E010EAA
:101E7A003F20DA6E2EC0DFFF1CC011F01DC012F029
:101E8A00760E3E24136E010E3F20146E32C015F0FA
:101E9A0033C016F07FEC19F011C01CF012C01DF00F
:101EAA0012000001E7BF5CEF0FF05EEF0FF05FEF8B
:101EBA000FF0E893E7BF6CEF0FF0E75106E1E60594
:101ECA00D8B06AEF0FF06CEF0FF072EF0FF0000E60
:101EDA002F6E010E2E6E76EF0FF0E6C02EF0E7C0E1
:101EEA002FF0E4C030F0E5C031F01EC032F01FC060
:101EFA0033F020C034F021C035F022C036F023C0C0
:101F0A0037F024C038F025C039F0000E3B6E1F0EA2
:101F1A003A6E000E0101956F09EF10F03A06D8A04B
:101F2A003B06760E3A24D96E010E3B20DA6E32C099
:101F3A0001F033C002F034C003F035C004F036C0FB
:101F4A0005F037C006F038C007F039C008F00A0EAD
:101F5A00096E000E0A6E000E0B6E000E0C6E000E5D
:101F6A000D6E000E0E6E000E0F6E000E106EB2ECAD
:101F7A0018F001C026F002C027F003C028F004C000
:101F8A0029F005C02AF006C02BF007C02CF008C0C3
:101F9A002DF02650300FDF6E2E06D8A02F06300601
:101FAA00D8A0310632C001F033C002F034C003F0C9
:101FBA0035C004F036C005F037C006F038C007F067
:101FCA0039C008F00A0E096E000E0A6E000E0B6E7A
:101FDA00000E0C6E000E0D6E000E0E6E000E0F6ED1
:101FEA00000E106EC5EC17F001C032F002C033F0DB
:101FFA0003C034F004C035F005C036F006C037F02F
:10200A0007C038F008C039F03A503B10D8B410EF86
:10201A0010F012EF10F043EF10F03250331034107A
:10202A0035103610371038103910D8A41FEF10F0B9
:10203A0021EF10F093EF0FF02FBE2EEF10F02F507C
:10204A0006E12E04D8B02CEF10F02EEF10F093EF2B
:10205A000FF031BE39EF10F0315008E13004D8A04A
:10206A0039EF10F03BEF10F043EF10F00001E8B346
:10207A0041EF10F043EF10F093EF0FF01CC011F096
:10208A001DC012F0760E3A24136E010E3B20146E18
:10209A0030C015F031C016F07FEC19F011C01CF0F9
:1020AA0012C01DF01200920E016E000E026E0DECAF
:1020BA0020F0000E0001916F000E906F17EF11F0E3
:1020CA00D8909035D96E9135DA6ED890D936DA36FD
:1020DA001A50D9261B50DA22DECF8CF0DECF8DF0D3
:1020EA00DECF8EF0DECF8FF08CC001F08DC002F013
:1020FA008EC003F08FC004F0000E3DEC11F001C059
:10210A000FF002C010F003C011F004C012F03DEC51
:10211A0017F00F501010D8B495EF10F097EF10F099
:10212A00B7EF10F0920E066E000E076ED8900001FF
:10213A009035D96E9135DA6ED890D936DA361A508A
:10214A00D9261B50DA22DECF08F0DECF09F0DECF27
:10215A000AF0DECF0BF026EC1FF00001904B912B1A
:10216A0017EF11F0FB0E00018C190AE18D2908E125
:10217A008E2906E18F29D8A4C5EF10F0C7EF10F019
:10218A00C9EF10F0B2EF10F0920E016E000E026E5F
:10219A0003EC1FF001C084F002C085F003C086F092
:1021AA0004C087F0920E016E000E026E03EC1FF05F
:1021BA0001C080F002C081F003C082F004C083F045
:1021CA008CC00EF08DC00FF08EC010F08FC011F0D1
:1021DA0080C012F081C013F082C014F083C015F0E1
:1021EA0084C016F085C017F086C018F087C019F0B1
:1021FA00EAEC14F00EC088F00FC089F010C08AF023
:10220A0011C08BF0920E066E000E076E88C008F0A1
:10221A0089C009F08AC00AF08BC00BF026EC1FF0C7
:10222A00B2EF10F0D8909035D96E9135DA6ED89019
:10223A00D936DA361A50D9261B50DA22DE50DE1089
:10224A00DE10DE10D8A42CEF11F02EEF11F065EF9E
:10225A0010F0920E016E000E026E03EC1FF001C028
:10226A001AF002C01BF003C01CF004C01DF01200DB
:10227A00096E0950D8B444EF11F046EF11F068EF37
:10228A0011F004BE4DEF11F04BEF11F068EF11F0B1
:10229A0001C005F002C006F003C007F004C008F050
:1022AA00051E061E071E081E052A000E0622072204
:1022BA00082205C00BF006C00CF007C00DF008C0DC
:1022CA000EF070EF11F001C00BF002C00CF003C069
:1022DA000DF004C00EF00150021003100410D8A42F
:1022EA0079EF11F07BEF11F085EF11F0000E016E1E
:1022FA00000E026E000E036E000E046E16EF12F050
:10230A00960E0A6E8FEF11F00A2AD8900E320D320D
:10231A000C320B32000E0B14056E000E0C14066EF6
:10232A00000E0D14076EFE0E0E14086E05500610F0
:10233A0007100810D8A4A4EF11F0A6EF11F089EF46
:10234A0011F0B4EF11F00A2A010E0B26000E0C222E
:10235A000D220E22D8900E320D320C320B32000EA4
:10236A000B14056E000E0C14066E000E0D14076E8B
:10237A00FF0E0E14086E0550061007100810D8A498
:10238A00C9EF11F0CBEF11F0A8EF11F0D3EF11F074
:10239A000A06D8900B360C360D360E360DBED8EF1F
:1023AA0011F0DAEF11F0E2EF11F0020E0A60E0EF3D
:1023BA0011F0E2EF11F0CDEF11F00AB0E7EF11F0F2
:1023CA00E9EF11F0EAEF11F00D9ED8900A320AC037
:1023DA0005F0066A076A086A05C008F0076A066A0D
:1023EA00056A05500B1206500C1207500D120850C0
:1023FA000E120950D8B404EF12F006EF12F00EEFE5
:10240A0012F004BE0DEF12F00BEF12F00EEF12F005
:10241A000E8E0BC001F00CC002F00DC003F00EC00E
:10242A0004F01200000E126E10BE20EF12F01EEF22
:10243A0012F032EF12F0101E0F1E0E1E0D1E0C1E91
:10244A000B1E0A1E096C000E0A220B220C220D22F8
:10245A000E220F221022010E126E08BE39EF12F060
:10246A0037EF12F04BEF12F0081E071E061E051E6C
:10247A00041E031E021E016C000E02220322042205
:10248A000522062207220822010E121A20EE13F054
:10249A00070EDE6AE806FDE209500A100B100C105E
:1024AA000D100E100F101010D8B45EEF12F060EF7E
:1024BA0012F0B2EF12F0010E116E6EEF12F0D89018
:1024CA0009360A360B360C360D360E360F361036EE
:1024DA00112A10AE73EF12F075EF12F064EF12F0DA
:1024EA00D890133614361536163617361836193666
:1024FA001A360950015C0A5002580B5003580C5006
:10250A0004580D5005580E5006580F5007581050D1
:10251A000858D8A093EF12F095EF12F0A6EF12F038
:10252A000950015E0A50025A0B50035A0C50045AC1
:10253A000D50055A0E50065A0F50075A1050085A95
:10254A001380D89010320F320E320D320C320B3209
:10255A000A320932112E75EF12F01250D8B4B8EFC0
:10256A0012F0BAEF12F0CAEF12F01A1E191E181E54
:10257A00171E161E151E141E136C000E1422152289
:10258A0016221722182219221A2213C001F014C087
:10259A0002F015C003F016C004F017C005F018C009
:1025AA0006F019C007F01AC008F0120001C00BF0BB
:1025BA0002C00CF005500610D8A4E6EF12F0E8EFBE
:1025CA0012F0EAEF12F095EF13F00BC0D9FF0CC02E
:1025DA00DAFF03C0DFFF05500B24076E06500C20FC
:1025EA00086EFF0E0724D96EFF0E0820DA6E03C0AC
:1025FA00DFFF065007E1030E055CD8B007EF13F0C2
:10260A0009EF13F00BEF13F095EF13F020EE01F042
:10261A000B50D9260C50DA2203C0DFFF20EE02F05D
:10262A000B50D9260C50DA2203C0DFFF05500B24C9
:10263A00076E06500C20086EFE0E0724D96EFF0E98
:10264A000820DA6E03C0DFFF05500B24076E065020
:10265A000C20086EFD0E0724D96EFF0E0820DA6ED4
:10266A0003C0DFFF065007E1070E055CD8B040EF54
:10267A0013F042EF13F044EF13F095EF13F020EE4E
:10268A0003F00B50D9260C50DA2203C0DFFF0550A5
:10269A000B24076E06500C20086EFC0E0724D96E18
:1026AA00FF0E0820DA6E03C0DFFF065007E1090EAD
:1026BA00055CD8B063EF13F065EF13F067EF13F022
:1026CA0095EF13F00BC007F00CC008F0071E081EA8
:1026DA00074A082A030E0714096E0A6A09500B26CC
:1026EA000A500C220950055E0A50065AFC0E0516BD
:1026FA00FF0E06168CEF13F00BC0D9FF0CC0DAFFE1
:10270A0003C0DFFF0506D8A006060B4A0C2A0550AF
:10271A000610D8A493EF13F095EF13F081EF13F09E
:10272A001200000E126E08BE9FEF13F09DEF13F019
:10273A00B1EF13F0081E071E061E051E041E031E17
:10274A00021E016C000E0222032204220522062226
:10275A0007220822010E126E10BEB8EF13F0B6EF70
:10276A0013F0C8EF13F0101E0F1E0E1E0D1E0C1EC6
:10277A000B1E0A1E096C000E0A220B220C220D22C5
:10278A000E220F22102209500A100B100C100D10E5
:10279A000E100F101010D8B4D5EF13F0D7EF13F0B6
:1027AA001FEF14F0010E116EE5EF13F0D890093601
:1027BA000A360B360C360D360E360F361036112AFF
:1027CA0010AEEAEF13F0ECEF13F0DBEF13F0095061
:1027DA00015C0A5002580B5003580C5004580D5013
:1027EA0005580E5006580F50075810500858D8A0D0
:1027FA0001EF14F003EF14F013EF14F00950015E27
:10280A000A50025A0B50035A0C50045A0D50055ADA
:10281A000E50065A0F50075A1050085AD8901032C4
:10282A000F320E320D320C320B320A320932112EAD
:10283A00ECEF13F01250D8B425EF14F027EF14F090
:10284A0037EF14F0081E071E061E051E041E031E7F
:10285A00021E016C000E0222032204220522062215
:10286A000722082201C001F002C002F003C003F0EF
:10287A0004C004F005C005F006C006F007C007F062
:10288A0008C008F01200010E096E01500210D8B4F7
:10289A0051EF14F053EF14F064EF14F001C0D9FFB4
:1028AA0002C0DAFFDF30E832E832070B036E070EA8
:1028BA00036462EF14F064EF14F0C7EF14F0000E33
:1028CA00096EE8EF14F001C0D9FF02C0DAFFDF3069
:1028DA00E832E832070B036E010E046E032A78EF22
:1028EA0014F0D8900436032E76EF14F00450FF0A41
:1028FA00056E01C0D9FF02C0DAFFDF50070B066E72
:10290A000650020DB50EF324D96E010EF420DA6ECC
:10291A00DECF07F0DDCF08F007C0D9FF08C0DAFF25
:10292A000550DF16E8EF14F001C0D9FF02C0DAFF44
:10293A00DF30E832E832070B036E010E046E032A19
:10294A00A9EF14F0D8900436032EA7EF14F001C0B3
:10295A00D9FF02C0DAFFDF50070B056E0550020DE2
:10296A00B50EF324D96E010EF420DA6EDECF06F02E
:10297A00DDCF07F006C0D9FF07C0DAFF0450DF1227
:10298A00E8EF14F001C0D9FF02C0DAFFDFBCD0EFD4
:10299A0014F0D3EF14F0010ED4EF14F0000E036E0E
:1029AA00046A0450000AD8B4DDEF14F064EF14F09E
:1029BA000350000AD8B468EF14F0010AD8B499EFAA
:1029CA0014F064EF14F009501200FE0E0E180AE11A
:1029DA000F2808E1102806E11128D8A4F7EF14F00F
:1029EA00F9EF14F015EF15F012C001F013C002F060
:1029FA0014C003F015C004F016C005F017C006F0A5
:102A0A0018C007F019C008F0EBEC1DF001C00EF079
:102A1A0002C00FF003C010F004C011F081EF15F0EE
:102A2A00FD0E0E180AE10F2808E1102806E1112808
:102A3A00D8A422EF15F024EF15F040EF15F012C0DC
:102A4A0001F013C002F014C003F015C004F016C060
:102A5A0005F017C006F018C007F019C008F039ECE5
:102A6A001BF001C00EF002C00FF003C010F004C04A
:102A7A0011F081EF15F00E280AE10F2808E110285D
:102A8A0006E11128D8A44CEF15F04EEF15F05CEFD3
:102A9A0015F0165012240E6E175013200F6E185090
:102AAA001420106E19501520116E81EF15F0FC0ECE
:102ABA000E180AE10F2808E1102806E11128D8A407
:102ACA0069EF15F06BEF15F079EF15F01650125CFF
:102ADA000E6E175013580F6E18501458106E195066
:102AEA001558116E81EF15F0000E0E6E000E0F6E66
:102AFA00000E106E000E116E1200010E0A6E0150C9
:102B0A000210D8B48BEF15F08DEF15F09EEF15F08B
:102B1A0001C0D9FF02C0DAFFDF30E832E832070B22
:102B2A00046E070E04649CEF15F09EEF15F001EF9A
:102B3A0016F0000E0A6E16EF16F001C0D9FF02C099
:102B4A00DAFFDF30E832E832070B046E010E056E59
:102B5A00042AB2EF15F0D8900536042EB0EF15F01E
:102B6A000550FF0A066E01C0D9FF02C0DAFFDF5026
:102B7A00070B076E0750020DAB0EF324D96E010E38
:102B8A00F420DA6EDECF08F0DDCF09F008C0D9FFF5
:102B9A0009C0DAFF0650DF1616EF16F001C0D9FF9A
:102BAA0002C0DAFFDF30E832E832070B046E010EAA
:102BBA00056E042AE3EF15F0D8900536042EE1EFEE
:102BCA0015F001C0D9FF02C0DAFFDF50070B066E0D
:102BDA000650020DAB0EF324D96E010EF420DA6E04
:102BEA00DECF07F0DDCF08F007C0D9FF08C0DAFF53
:102BFA000550DF1216EF16F00350046E056A0550F1
:102C0A00000AD8B40BEF16F09EEF15F00450000A34
:102C1A00D8B4A2EF15F0010AD8B4D3EF15F09EEF9D
:102C2A0015F00A501200000E176E13501410D8A493
:102C3A0021EF16F023EF16F027EF16F0000E186EAC
:102C4A00AAEF16F013C00BF014C00CF0B5EC1DF08F
:102C5A00186E010E13240B6E000E14200C6EB5ECC8
:102C6A001DF0186E000E176E17501324156E000E05
:102C7A001420166E020E15240B6E000E16200C6E12
:102C8A00B5EC1DF0172A030E17644EEF16F050EF3D
:102C9A0016F039EF16F0340E156EF20EE82EFED746
:102CAA00152EFCD713C00FF014C010F0380E116E99
:102CBA0046EC1DF00D0E156EFC0EE82EFED7152EF5
:102CCA00FCD713C00FF014C010F0380E116E46EC8A
:102CDA001DF0640EE82EFED713C00FF014C010F0DA
:102CEA00380E116E46EC1DF013C00FF014C010F030
:102CFA00010E116E46EC1DF013C00FF014C010F057
:102D0A00020E116E46EC1DF013C00FF014C010F045
:102D1A00060E116E46EC1DF013C00FF014C010F031
:102D2A000C0E116E46EC1DF013C00FF014C010F01B
:102D3A00280E116E46EC1DF013C00FF014C010F0EF
:102D4A00010E116E46EC1DF0186E18501200000E9E
:102D5A00146E000E156E000E136E000E126E0B50DE
:102D6A000C10D8B4BBEF16F0BDEF16F0C6EF16F094
:102D7A000D500E10D8A4C4EF16F0C6EF16F0CAEF25
:102D8A0016F0000E116E3BEF17F0000E146E000ED7
:102D9A00136E13500B24016E000E0C20026E000EEF
:102DAA00036E82EC15F0132A030E1364DFEF16F09C
:102DBA00E1EF16F0CEEF16F014500B24016E000E60
:102DCA000C20026E010E036E82EC15F0820E0F6E5D
:102DDA00DE0EE82EFED70F2EFCD7000E156E15500C
:102DEA000B240F6E000E0C20106E040E0F24016EC1
:102DFA00000E1020026E120E036E000E046EE2EC3C
:102E0A0019F0116E1204D8A40DEF17F00FEF17F096
:102E1A0029EF17F01450060D010E0F6E100E106EEA
:102E2A00F3500F26F450102215500F26000E1022D0
:102E3A000FC0F6FF10C0F7FFF86A0DC0D9FF0EC029
:102E4A00DAFF0800F5CFDFFF152A050E156430EF0B
:102E5A0017F032EF17F0F4EF16F0142A030E146489
:102E6A0039EF17F03BEF17F0CCEF16F011501200C4
:102E7A000FC001F010C002F011C003F012C004F03C
:102E8A00000E056E000E066E800E076E4F0E086E5F
:102E9A003EEC1AF0D8B054EF17F056EF17F0BAEF2D
:102EAA0017F00FC001F010C002F011C003F012C0F9
:102EBA0004F0000E056E000E066E800E076E4F0EB1
:102ECA00086E3EEC1AF0D8B06DEF17F06FEF17F0FE
:102EDA00BAEF17F00FC001F010C002F011C003F0F2
:102EEA0012C004F0000E056E000E066E800E076E0C
:102EFA004F0E086E3EEC1AF0D8B086EF17F088EF46
:102F0A0017F0BAEF17F00FC001F010C002F011C0AD
:102F1A0003F012C004F0000E056E000E066E800E5D
:102F2A00076E4F0E086E3EEC1AF0D8B09FEF17F0FE
:102F3A00A1EF17F0BAEF17F00FC001F010C002F0BE
:102F4A0011C003F012C004F0000E056E000E066EEA
:102F5A00800E076E4F0E086E3EEC1AF0D8A0B8EF3E
:102F6A0017F0BAEF17F0C0EF17F0000E106E000E50
:102F7A000F6EC4EF17F0000E106E010E0F6E1200E6
:102F8A0020EE11F0070EDE6AE806FDE209500A108B
:102F9A000B100C100D100E100F101010D8B4D8EF23
:102FAA0017F0DAEF17F02CEF18F0010E196EE8EFB0
:102FBA0017F0D89009360A360B360C360D360E360F
:102FCA000F361036192A10AEEDEF17F0EFEF17F0A3
:102FDA00DEEF17F0D890113612361336143615363E
:102FEA001636173618360950015C0A5002580B502B
:102FFA0003580C5004580D5005580E5006580F50DF
:10300A00075810500858D8A00DEF18F00FEF18F015
:10301A0020EF18F00950015E0A50025A0B50035A69
:10302A000C50045A0D50055A0E50065A0F50075AA2
:10303A001050085A1180D89010320F320E320D32C9
:10304A000C320B320A320932192EEFEF17F011C087
:10305A0001F012C002F013C003F014C004F015C04E
:10306A0005F016C006F017C007F018C008F01200E5
:10307A0001C008F002C009F003C00AF004C00BF056
:10308A000506D8A00606052806E10628D8A450EFAA
:10309A0018F052EF18F05FEF18F0000E026E000EF3
:1030AA00016EB1EF18F0084A092A0A4A0B2A0506E6
:1030BA00D8A0060608C0F6FF09C0F7FFF86A08009C
:1030CA00F5500009D8B46CEF18F06EEF18F09DEFC8
:1030DA0018F00AC0F6FF0BC0F7FFF86A0800F550AF
:1030EA000009D8B47BEF18F07DEF18F09DEF18F0C7
:1030FA0005500610D8B484EF18F086EF18F09DEF4B
:10310A0018F008C0F6FF09C0F7FFF86A0800F5CF03
:10311A0007F00AC0F6FF0BC0F7FFF86A0800F5507F
:10312A000718D8B49BEF18F09DEF18F058EF18F075
:10313A0008C0F6FF09C0F7FFF86A0800F5CF07F0E4
:10314A000AC0F6FF0BC0F7FFF86A0800F550075CE3
:10315A00016E026AD8A00206120009500A100B106A
:10316A000C100D100E100F101010D8B4BFEF18F07D
:10317A00C1EF18F009EF19F0010E116ECFEF18F038
:10318A00D89009360A360B360C360D360E360F36FF
:10319A001036112A10AED4EF18F0D6EF18F0C5EF9A
:1031AA0018F00950015C0A5002580B5003580C5091
:1031BA0004580D5005580E5006580F500758105015
:1031CA000858D8A0EBEF18F0EDEF18F0FDEF18F063
:1031DA000950015E0A50025A0B50035A0C50045A05
:1031EA000D50055A0E50065A0F50075A1050085AD9
:1031FA00D89010320F320E320D320C320B320A32A4
:10320A000932112ED6EF18F001C001F002C002F007
:10321A0003C003F004C004F005C005F006C006F0C0
:10322A0007C007F008C008F0120003500410D8B411
:10323A0021EF19F023EF19F02CEF19F003500410C5
:10324A00D8A42AEF19F02CEF19F031EF19F0015038
:10325A001EEC20F07EEF19F020EE09F00350D9267B
:10326A000450DA22DE50DE10D8B43EEF19F040EFF7
:10327A0019F05BEF19F020EE09F00350D92604503B
:10328A00DA2210EE03F00350E1260450E222DE5067
:10329A00E65CE650800A096EDE50800A0958D8B00A
:1032AA0059EF19F05BEF19F07EEF19F020EE03F0F9
:1032BA000350D9260450DA22DECF05F0DDCF06F01E
:1032CA0003C0D9FF04C0DAFFDECF07F0DDCF08F074
:1032DA0005500724D96E06500820DA6E01C0DFFFB8
:1032EA0020EE03F00350D9260450DA22DE2A000E1B
:1032FA00DD2212000001E8A185EF19F087EF19F02D
:10330A0091EF19F013C00AF014C00BF011C00CF0C1
:10331A0012C00DF048EC1FF016BE96EF19F098EFA8
:10332A0019F09EEF19F015C01AF016C01BF0A2EFA3
:10333A0019F0000E1B6E000E1A6E000E196E000EAA
:10334A00186EB4EF19F0000E026E200E016E11C055
:10335A0003F012C004F01AEC19F0184A192A1A508C
:10336A00185C1950800A176E1B50800A1758D8A08B
:10337A00C1EF19F0C3EF19F0A8EF19F00001E8B195
:10338A00C9EF19F0CBEF19F0D5EF19F013C00AF015
:10339A0014C00BF011C00CF012C00DF048EC1FF075
:1033AA0013C001F014C002F0DFEC1FF01A50012420
:1033BA00116E1B500220126E1200010E0A6E01508D
:1033CA000210D8B4EBEF19F0EDEF19F007EF1AF08D
:1033DA0003500410D8B4F4EF19F0F6EF19F007EF20
:1033EA001AF001C0D9FF02C0DAFFDF30E832E83252
:1033FA00070B056E070E056405EF1AF007EF1AF0C2
:10340A000BEF1AF0000E0A6E3CEF1AF001C0D9FF5A
:10341A0002C0DAFFDF30E832E832070B056E01C07E
:10342A00D9FF02C0DAFFDF50070B066E0650020D05
:10343A00A10EF324D96E010EF420DA6EDECF07F066
:10344A00DDCF08F007C0D9FF08C0DAFFDF50096EE8
:10345A00052A32EF1AF0D8900932052E30EF1AF009
:10346A000950010B03C0D9FF04C0DAFFDF6E0A500E
:10347A001200000E0114096E000E02140A6E800E6C
:10348A0003140B6E7F0E04140C6E09500A100B10F5
:10349A000C10D8A453EF1AF055EF1AF05DEF1AF09A
:1034AA00000E016E000E026E000E036E000E046E18
:1034BA00000E0514096E000E06140A6E800E07141B
:1034CA000B6E7F0E08140C6E09500A100B100C10AC
:1034DA00D8A472EF1AF074EF1AF07CEF1AF0000E0B
:1034EA00056E000E066E000E076E000E086E055081
:1034FA0001180FE1065002180CE10750031809E100
:10350A0008500418D8B48CEF1AF08EEF1AF091EF25
:10351A001AF0D89092EF1AF0D8801200010E196EA4
:10352A001606C8EF1AF013C00FF014C010F01650A8
:10353A00800F116E46EC1DF0196EE5EF1AF013C0FC
:10354A000FF014C010F01650C00F116E46EC1DF0AB
:10355A00196EE5EF1AF013C00FF014C010F01650F0
:10356A00940F116E46EC1DF0196EE5EF1AF013C0B8
:10357A000FF014C010F01650D40F116E46EC1DF067
:10358A00196EE5EF1AF01550176E186A1850000AEE
:10359A00D8B4D2EF1AF0E5EF1AF01750010AD8B4EE
:1035AA0098EF1AF0030AD8B4A4EF1AF0010AD8B4B3
:1035BA00B0EF1AF0070AD8B4BCEF1AF0E5EF1AF028
:1035CA0019501200056E2B0E0518D8A4EFEF1AF049
:1035DA00F1EF1AF0F7EF1AF001680268036804685D
:1035EA0038EF1BF02A0E0518D8A4FEEF1AF000EFE8
:1035FA001BF00AEF1BF0FE0E016EFF0E026EFF0EAD
:10360A00036EFF0E046E38EF1BF02F0E0518D8A4B8
:10361A0011EF1BF013EF1BF01DEF1BF0FD0E016EF7
:10362A00FF0E026EFF0E036EFF0E046E38EF1BF0E4
:10363A002D0E0518D8A424EF1BF026EF1BF030EF4F
:10364A001BF0FC0E016EFF0E026EFF0E036EFF0EE4
:10365A00046E38EF1BF0000E016E000E026E000EB3
:10366A00036E000E046E1200000E096E000E0A6E42
:10367A00000E0B6E000E0C6E055006100710081097
:10368A00D8B44AEF1BF04CEF1BF082EF1BF0010E8F
:10369A000D6E56EF1BF0D8900536063607360836FB
:1036AA000D2A08AE5BEF1BF05DEF1BF050EF1BF02D
:1036BA00D89009360A360B360C360550015C06508E
:1036CA0002580750035808500458D8A06FEF1BF04F
:1036DA0071EF1BF07AEF1BF00550015E0650025A9B
:1036EA000750035A0850045A0980D8900832073202
:1036FA00063205320D2E5DEF1BF009C001F00AC03B
:10370A0002F00BC003F00CC004F012001A501B1098
:10371A00D8A492EF1BF094EF1BF098EF1BF0000E69
:10372A00206ED9EF1BF01AC013F01BC014F01CC096
:10373A0015F01DC016F093EC1AF0206EC0EF1BF0C6
:10374A001AC00FF01BC010F01EC0F6FF1FC0F7FF13
:10375A00000EF86E0F0EF76403D00800F55005D07E
:10376A00F6CFE9FFF7CFEAFFEF50116E0DEC1DF02F
:10377A00206E1E4A1F2A1EC0F6FF1FC0F7FF000E4A
:10378A00F86E0F0EF76403D00800F55005D0F6CF97
:10379A00E9FFF7CFEAFFEF500009D8A4D7EF1BF0F3
:1037AA00D9EF1BF0A5EF1BF020501200000E146E8B
:1037BA00000E156E0F501010D8A4E6EF1BF0E8EFBC
:1037CA001BF0ECEF1BF0000E136E19EF1CF0000E4D
:1037DA00146E14500F240B6E000E10200C6EB5ECF4
:1037EA001DF0142A030E1464FDEF1BF0FFEF1BF00B
:1037FA00EEEF1BF0000E156E15500F24116E000E21
:10380A001020126E040E1124016E000E1220026E98
:10381A0048EC14F0136E152A050E156417EF1CF008
:10382A0019EF1CF001EF1CF013501200036E2B0E5F
:10383A000318D8B423EF1CF025EF1CF02EEF1CF070
:10384A002D0E0318D8A42CEF1CF02EEF1CF034EF29
:10385A001CF0000E026E010E016E59EF1CF02A0ECA
:10386A000318D8B43BEF1CF03DEF1CF04FEF1CF0EF
:10387A002F0E0318D8B444EF1CF046EF1CF04FEF9C
:10388A001CF0250E0318D8A44DEF1CF04FEF1CF0C6
:10389A0055EF1CF0000E026E020E016E59EF1CF07D
:1038AA00000E026E000E016E12000F501010D8A406
:1038BA0061EF1CF063EF1CF067EF1CF0000E126E54
:1038CA0095EF1CF0F6C013F00FC0D9FF10C0DAFF55
:1038DA00DF500F0B116E13501118F80B1118136EDD
:1038EA000FC0D9FF10C0DAFFDF38070B116E11467F
:1038FA001146114613501118C70B1118136E139C59
:10390A000FC0D9FF10C0DAFFDFAE02D0138E01D08C
:10391A00139E130E0B6E000E0C6EB5EC1DF0126E9C
:10392A00125012000B500C10D8A49EEF1CF0A0EFFE
:10393A001CF0A2EF1CF0D1EF1CF0F5C00EF00BC08A
:10394A00D9FF0CC0DAFFDF500F0B0D6E0E500D18A9
:10395A00F80B0D180E6E0BC0D9FF0CC0DAFFDF385A
:10396A00070B0D6E0D460D460D460E500D18C70B72
:10397A000D180E6E0E9C0BC0D9FF0CC0DAFFDFAE1D
:10398A0002D00E8E01D00E9E0E0E016E000E026E39
:10399A00010E036E82EC15F012000B500C10D8A425
:1039AA00D9EF1CF0DBEF1CF0DDEF1CF00CEF1DF083
:1039BA00F4C00EF00BC0D9FF0CC0DAFFDF500F0BBA
:1039CA000D6E0E500D18F80B0D180E6E0BC0D9FFA8
:1039DA000CC0DAFFDF38070B0D6E0D460D460D469B
:1039EA000E500D18C70B0D180E6E0E9C0BC0D9FF8A
:1039FA000CC0DAFFDFAE02D00E8E01D00E9E0E0E84
:103A0A00016E000E026E000E036E82EC15F01200BB
:103A1A000F501010D8A414EF1DF016EF1DF01AEF76
:103A2A001DF0000E126E44EF1DF00FC001F010C021
:103A3A0002F0010E036E82EC15F0126E0FC00BF04D
:103A4A0010C00CF011380F0B0D6E20EC1EF0126E28
:103A5A000FC00BF010C00CF08AEC1FF0126E0FC0F2
:103A6A000BF010C00CF011C00DF020EC1EF0126E1D
:103A7A000FC00BF010C00CF08AEC1FF0126E12503F
:103A8A0012000F501010D8A44DEF1DF04FEF1DF08B
:103A9A0053EF1DF0000E126E7DEF1DF00FC001F006
:103AAA0010C002F0000E036E82EC15F0126E0FC009
:103ABA000BF010C00CF011380F0B0D6E20EC1EF03D
:103ACA00126E0FC00BF010C00CF08AEC1FF0126ED1
:103ADA000FC00BF010C00CF011C00DF020EC1EF05E
:103AEA00126E0FC00BF010C00CF08AEC1FF0126EB1
:103AFA0012501200880EF66E3F0EF76E000EF86E28
:103B0A0001EEA1F010EE36F00900F5CFEEFFE55018
:103B1A00E150FAE1300EF66E400EF76E000EF86EC6
:103B2A0000EEFAF010EE06F00900F5CFEEFFE550D0
:103B3A00E150FAE102EE00F0640EEE6AE806FDE1F9
:103B4A0001EE00F0A10EEE6AE806FDE100EEE4F0F7
:103B5A00160EEE6AE806FDE17F6A000155EF08F0ED
:103B6A000B500C10D8B4BCEF1DF0BEEF1DF0CFEF18
:103B7A001DF00BC0D9FF0CC0DAFFDF30E832E832A3
:103B8A00070B0D6E070E0D64CDEF1DF0CFEF1DF084
:103B9A00D3EF1DF0000E0E6EE9EF1DF00BC001F021
:103BAA000CC002F048EC14F00E6E0BC001F00CC011
:103BBA0002F00BC0D9FF0CC0DAFF000EDFBE010E07
:103BCA00036E82EC15F00E6E0E501200000E096E96
:103BDA00000E0A6E000E0B6E000E0C6E01A0F8EFBE
:103BEA001DF0FAEF1DF002EF1EF0055009260650EF
:103BFA000A2207500B2208500C22D89005360636A6
:103C0A0007360836D89004320332023201320150A4
:103C1A00021003100410D8A415EF1EF017EF1EF0BF
:103C2A00F3EF1DF009C001F00AC002F00BC003F067
:103C3A000CC004F01200020E0B24016E000E0C20C0
:103C4A00026E0D50010B036E82EC15F0030E0B246D
:103C5A00016E000E0C20026ED8900D30010B036E1F
:103C6A0082EC15F0040E0B24016E000E0C20026E7D
:103C7A000D40E8423F0B010B036E82EC15F0050E76
:103C8A000B24016E000E0C20026E0D38E8461F0B45
:103C9A00010B036E82EC15F00E6E0E50120066C018
:103CAA006AF067C06BF0000E01010F6F000E0E6F15
:103CBA0072EF1EF064C040F065C041F06A0E426EB9
:103CCA00000E436E68C044F069C045F07AEC0AF011
:103CDA00405001010E2741500F236AC0F6FF6BC006
:103CEA00F7FFF86A0800F5500009D8A47FEF1EF024
:103CFA0081EF1EF05FEF1EF00EC164F00FC165F098
:103D0A001200010E7A6E78507910D8A48FEF1EF047
:103D1A0091EF1EF095EF1EF0000E7A6EB5EF1EF0D1
:103D2A0078C001F079C002F0000E046E000E036E36
:103D3A00000E066E0B0E056EDBEC12F078C06CF00E
:103D4A0079C06DF09B0E6E6E100E6F6E74C070F0BF
:103D5A0075C071F076C072F077C073F0B7EC1EF0E0
:103D6A007A501200700E0001806F000E816F6CC0D5
:103D7A0082F06DC083F0000E866F000E856F000E14
:103D8A008C6F000E8B6F820E646E000E656E6EC0B5
:103D9A0066F06FC067F0800E686E000E696E54ECB4
:103DAA001EF0000185516C24D96E86516D20DA6EA1
:103DBA00000EDF6E12001A501B10D8A4E7EF1EF097
:103DCA00E9EF1EF0EDEF1EF0000E1F6E01EF1FF07F
:103DDA001AC013F01BC014F01CC015F01DC016F059
:103DEA0093EC1AF01F6E1AC00FF01BC010F01EC021
:103DFA0011F00DEC1DF01F6E1F50120020EE50F056
:103E0A000150D9260250DA22DFCF05F0010EDE5E1C
:103E1A00DFCF06F0000EDD5AD89005360636D89068
:103E2A000536063605500124D96E06500220DA6E90
:103E3A00DECF01F0DECF02F0DECF03F0DECF04F0FA
:103E4A00120020EE50F00650D9260750DA22DE2A58
:103E5A00000EDD22DECF0CF0DDCF0DF0D8900C364F
:103E6A000D36D8900C360D360C500624D96E0D50EE
:103E7A000720DA6E08C0DEFF09C0DEFF0AC0DEFFD7
:103E8A000BC0DEFF1200000E106E000E0F6E59EF0F
:103E9A001FF00EC001F0026A0CC003F00DC004F05E
:103EAA001AEC19F00F4A102A0F500A24D96E105032
:103EBA000B20DA6EDF500E6E0E50D8A467EF1FF09B
:103ECA0069EF1FF04EEF1FF0120014BE77EF1FF0DC
:103EDA00145006E11304D8B075EF1FF077EF1FF006
:103EEA0085EF1FF013C015F014C016F0151E161E2C
:103EFA00154A162A15C013F016C014F089EF1FF0E0
:103F0A0013C013F014C014F01200010E0B24016E3A
:103F1A00000E0C20026E010E036E82EC15F00D0EDF
:103F2A000D6EFC0EE82EFED70D2EFCD7010E0B24CB
:103F3A00016E000E0C20026E000E036E82EC15F06C
:103F4A000E6E0E501200036E2F0E0364AFEF1FF0B9
:103F5A00B1EF1FF0BFEF1FF03A0E0360B7EF1FF08B
:103F6A00B9EF1FF0BFEF1FF0000E026E010E016ED7
:103F7A00C3EF1FF0000E026E000E016E1200800FDA
:103F8A00810F820F830F840F890F8A0F8B0F8C0F7B
:103F9A008D0F920F930F940F950F960F2F452A2D81
:103FAA002B3D4443020A121A626A727A434B131B6C
:103FBA00232B333B01C003F002C004F0E7EF1FF0EC
:103FCA00014A022A01C0D9FF02C0DAFFDF50D8A491
:103FDA00F1EF1FF0F3EF1FF0E5EF1FF00350015C64
:103FEA00016E04500258026E1200C70E0F6E010EC7
:103FFA00106EDBEC1BF0F90E0F6E000E106E5AEC11
:10400A001CF0D10E136E010E146E18EC16F012008D
:10401A0020EE50F00150D9260250DA22FF0EDE6E51
:10402A00FF0EDD6E1200010101010101FAEC1FF021
:04403A00120012005E
:020000040020DA
:08000000FFFFFFFFFFFFFFFF00
:020000040030CA
:0E000000FF02091EFF8181FF0FC00FE00F40BD
:00000001FF
